:100000000C94C7010C94E4010C94E4010C94E401F9
:100010000C94E4010C94E4010C94E4010C94E401CC
:100020000C94E4010C94E4010C94E4010C94E401BC
:100030000C94E4010C94E4010C94E4010C94E401AC
:100040000C94E4010C94E4010C94E4010C94E4019C
:100050000C94E4010C94E4010C94E4010C94E4018C
:100060000C94E4010C94E4010C94E4010C94E4017C
:100070000C94E4010C94E4010C94E4010C94E4016C
:100080000C94E4010C94E4010C94E4010C94E4015C
:100090000C94E4010C94E4010C94E4010C94E4014C
:1000A0000C94E4010C94E4010C94E40100000000C1
:1000B0000000005F00000007000700147F147F1499
:1000C000242A7F2A122313086462364955225000DD
:1000D00005030000001C2241000041221C001408FE
:1000E0003E081408083E08080050300000080808C0
:1000F0000808006060000020100804023E514945D5
:100100003E00427F400042615149462141454B310A
:100110001814127F1027454545393C4A494930019A
:10012000710905033649494936064949291E0036F1
:100130003600000056360000081422410014141442
:100140001414004122140802015109063249794170
:100150003E7E1111117E7F494949363E414141227F
:100160007F4141221C7F494949417F090909013EDC
:100170004149497A7F0808087F00417F41002040BB
:10018000413F017F081422417F404040407F020CE4
:10019000027F7F0408107F3E4141413E7F090909EB
:1001A000063E4151215E7F09192946464949493198
:1001B00001017F01013F4040403F1F2040201F3F81
:1001C0004038403F63140814630708700807615102
:1001D000494543007F41410002040810200041418D
:1001E0007F0004020102044040404040000102043C
:1001F0000020545454787F484444383844444420C0
:10020000384444487F3854545418087E0901020C7D
:100210005252523E7F0804047800447D4000204042
:10022000443D007F1028440000417F40007C0418BA
:1002300004787C0804047838444444387C1414144A
:1002400008081414187C7C080404084854545420EA
:10025000043F4440203C4040207C1C2040201C3C6B
:100260004030403C44281028440C5050503C4464DA
:10027000544C44000836410000007F000000413625
:100280000800100808100878464146786E616E0034
:10029000696E660000407A10F35A00A0724E180989
:1002A0000010A5D4E80000E87648170000E40B54DD
:1002B000020000CA9A3B000000E1F50500008096AC
:1002C0009800000040420F000000A08601000000DE
:1002D000102700000000E803000000006400000098
:1002E00000000A00000000000100000000002C7661
:1002F000D888DC674F0823DFC1DFAE59E1B1B7967C
:10030000E5E3E453C63AE651997696E8E6C28426D8
:10031000EB898C9B62ED407C6FFCEFBC9C9F40F2B4
:10032000BAA56FA5F490055A2AF75C936B6CF96730
:100330006DC11BFCE0E40D47FEF520E6B500D0EDF5
:10034000902E0300943577050080841E080000205D
:100350004E0A000000C80C333333330F986E1283FB
:100360001141EF8D2114893BE65516CFFEE6DB18CF
:10037000D1844B381BF77C1D901DA4BBE424203294
:1003800084725E228100C9F124ECA1E53D2711248D
:100390001FBECFEFDAE0DEBFCDBF11E0A0E0B1E0DD
:1003A000EEEAFEE102C005900D92A031B107D9F747
:1003B00023E0A0E1B1E001C01D92AD31B207E1F749
:1003C0000E943E030C94550F0C9400004F925F92D4
:1003D0006F927F92AF92BF92CF92EF920F931F9343
:1003E000CF93DF930E94640DEC010E94640D6AE2DA
:1003F00070E00E94B70CBC01882777FD8095982F8C
:100400000E940E0B2B013C01CE0166E470E00E94BD
:10041000B70CBC01882777FD8095982F0E940E0BA2
:10042000AB01BC0180E0A82E81E0B82E96E0C92E79
:100430002EE0E22E9301820180E191E00E94CC0542
:10044000DF91CF911F910F91EF90CF90BF90AF9020
:100450007F906F905F904F9008954F925F926F9250
:100460007F928F929F92AF92BF92CF92DF92EF9244
:10047000FF920F931F93CF93DF93CDB7DEB72897EB
:100480000FB6F894DEBF0FBECDBF0E94640DBC0155
:10049000882777FD8095982F0E940E0B20E03EEF75
:1004A0004FEF56E40E94730A20E030E040E05FE343
:1004B0000E940A0A2B013C010E94640DBC0188279E
:1004C00077FD8095982F0E940E0B20E03EEF4FEFB6
:1004D00056E40E94730A20E030E040E05FE30E94AF
:1004E0000A0A6B017C01A3019201C301B2010E94BF
:1004F000C20B4B015C01A7019601C701B6010E9426
:10050000C20B9B01AC01C501B4010E940B0A2FEF85
:1005100036EE4BED5EE20E940B0A0E94490C4B0145
:100520005C019B01AC01C301B2010E94730A2B0163
:100530003C01A5019401C701B6010E94730A6983B9
:100540007A838B839C83209110013091110140911B
:10055000120150911301C301B2010E940B0A4B0119
:100560005C016093100170931101809312019093CC
:100570001301209114013091150140911601509101
:10058000170169817A818B819C810E940B0A6B0122
:100590007C01609314017093150180931601909370
:1005A0001701C501B4010E94250C6D837E838F83E2
:1005B0009887C701B6010E94250C0E94DB0A8B01B7
:1005C0006D817E818F8198850E94DB0A663471057A
:1005D00070F0A3019201C501B4010E940A0A609360
:1005E00010017093110180931201909313010A324C
:1005F000110580F029813A814B815C81C701B601E8
:100600000E940A0A609314017093150180931601E9
:100610009093170128960FB6F894DEBF0FBECDBF9A
:10062000DF91CF911F910F91FF90EF90DF90CF90CE
:10063000BF90AF909F908F907F906F905F904F9002
:100640000895E1E6F0E080E8808381E080838FE335
:100650000E9482050E945C030E94E60180E191E015
:100660000E94F0050C9449030E945C030E942D0235
:1006700080E191E00E94F0050C9449030E9421035F
:100680000E9434038FE19EE40197F1F700C000005F
:10069000F7CFCF93DF9360E080E00E94C005C5E212
:1006A000D1E0699181E00E94640583E0CD31D807F3
:1006B000C1F7DF91CF910895E5E2F1E0119283E077
:1006C000ED31F807D9F7089584359105B0F5603319
:1006D000710598F59B0173E0359527957A95E1F7BB
:1006E0006770452BA9F044E5429FF001439FF00D50
:1006F0001124E80FF91FEB5DFE4F81E090E0062E1C
:1007000001C0880F0A94EAF79081982B908308958E
:1007100044E5429FF001439FF00D1124E80FF91FBB
:10072000EB5DFE4F81E090E0062E01C0880F0A9439
:10073000EAF7809590818923808308952F923F92D4
:100740004F925F926F927F928F929F92AF92BF92E1
:10075000CF92DF92EF92FF920F931F93CF93DF938D
:10076000CDB7DEB72E970FB6F894DEBF0FBECDBF64
:100770001C012B013A015901480184179507D1F456
:100780008B014A145B0494F4A016B1060CF4F7C074
:10079000A401B801C1010E9464034A145B041CF463
:1007A0000F5F1F4FEECF01501109EBCF0A151B054C
:1007B0007CF7E5C062177307D1F48C012614370467
:1007C00094F4601671060CF4DAC0A401B201C801F9
:1007D0000E946403261437041CF40F5F1F4FEECFF2
:1007E00001501109EBCF061517057CF7C8C0481753
:1007F00059074CF4852D2901A62EB82E922D832D54
:100800001A01692E782EB30162197309882777FDC2
:100810008095982F0E940E0B69877A878B879C871B
:10082000B50164197509882777FD8095982F0E9476
:100830000E0B6D837E838F83988729853A854B8540
:100840005C850E94730A69837A838B839C8320E092
:1008500030E0A9010E94BE0B87FF09C089819A81FF
:10086000AB81BC81B05889839A83AB83BC83C12C94
:10087000D12C760120E030E0A90169857A858B854D
:100880009C850E94BE0B18160CF075C06214730490
:100890000CF475C0A401B201C1010E946403298156
:1008A0003A814B815C81C701B6010E940B0A6B0142
:1008B0007C0120E030E040E05FE30E94BE0B87FF58
:1008C00010C020E030E0A90169857A858B859C8580
:1008D0000E94BE0B18160CF04AC0FFEF2F1A3F0AF9
:1008E000C9CF20E030E0A9016D817E818F8198859C
:1008F0000E94BE0B1816BCF5A414B50414F3A40191
:10090000B201C1010E94640301E010E020E030E088
:10091000A9016D817E818F8198850E94BE0B18167A
:1009200014F000E010E0A1E0B0E0BE87AD8720E069
:1009300030E0A9016D817E818F8198850E946F0AC8
:1009400087FD02C01E861D86ED85FE850E1B1F0BD2
:10095000400E511E20E030E040E85FE3C701B601E1
:100960000E940A0AA4CF4A145B044CF6AACF81E085
:10097000281A31087FCF261437040CF08BCF2E961F
:100980000FB6F894DEBF0FBECDBFDF91CF911F91A0
:100990000F91FF90EF90DF90CF90BF90AF909F901E
:1009A0008F907F906F905F904F903F902F90089521
:1009B0002F923F924F925F926F927F928F929F926F
:1009C000AF92BF92CF92DF92EF92FF920F931F935D
:1009D000CF93DF937C016B01190185E0489F3001C3
:1009E000112400E010E0C301845F9F4F3C014424C8
:1009F0004394512CF301E00FF11F84902114310432
:100A000009F48094C0E0D0E0912C5801AE0CBF1CDA
:100A1000A2010C2E02C0440F551F0A94E2F7482190
:100A200059210C2E02C0559547950A94E2F7BE0154
:100A30006C0D7D1DC5010E9464032196C830D1054F
:100A400039F70F5F1F4F05301105A1F6DF91CF91E8
:100A50001F910F91FF90EF90DF90CF90BF90AF90DC
:100A60009F908F907F906F905F904F903F902F90CE
:100A70000895BF92CF92DF92EF92FF920F931F9350
:100A8000CF93DF93B82E8B017A016901C0E0D0E0EB
:100A90008C2F880F880F8C0F8B0DF701EC0FF11D39
:100AA00040812196442331F09601B80190E00E94E4
:100AB000D804EECFDF91CF911F910F91FF90EF906F
:100AC000DF90CF90BF90089525B130E2839FC001A1
:100AD00011242F7D282B25B95F9887E090E070E0E6
:100AE0008F989B01082E02C0359527950A94E2F74E
:100AF00020FF02C02E9A01C02E988F9A019780F78E
:100B00005F9A0895CF93C82F579A249A259A269AC8
:100B1000879A2C985F9A2C9A61E280E00E94640583
:100B20006C2F606880E00E94640564E080E00E94B1
:100B3000640563E180E00E9464056CE080E00E944F
:100B4000640560E280E00E9464056CE080E00E9441
:100B5000640560E480E00E94640560E880E0CF9175
:100B60000C946405CF93DF93C8EFD1E060E081E09F
:100B70000E94640521972097C9F7DF91CF910895CE
:100B8000CF93C82F606480E00E9464056C2F60687A
:100B900080E0CF910C946405AF92BF92CF92EF9218
:100BA0000F931F93FC0140835183628373830483FB
:100BB000158326833783E08AC18AB48AA38A81E0B9
:100BC000828B1086118612861386148615861686E9
:100BD00017861F910F91EF90CF90BF90AF9008951F
:100BE0002F923F924F925F926F927F928F929F923D
:100BF000AF92BF92CF92DF92EF92FF920F931F932B
:100C0000CF93DF93EC018A89882309F475C068814A
:100C100079818A819B810E94250C0E94DB0A6B01ED
:100C20007C014B016C817D818E819F810E94250C0E
:100C300024E5C216D1040CF05FC0A888B12CCA0C00
:100C4000DB1C1C141D040CF057C00E94DB0A3B0186
:100C5000603371050CF050C0298930E0260F371F32
:100C6000121613060CF048C087E0A80EB11C33E042
:100C7000B594A7943A95E1F7C12CD12CE12CF12C35
:100C800047E0442E512C898990E0E816F906A4F536
:100C900000E010E01701260C371C888990E0081747
:100CA000190724F5C80123E0959587952A95E1F762
:100CB000EB89FC89EC0DFD1DE80FF91F408150E028
:100CC000C801877099279201281B390B02C05595DE
:100CD00047952A95E2F741705527B101C801880D63
:100CE000991D0E9464030F5F1F4FD7CF3FEFE31A98
:100CF000F30ACA0CDB1CC7CFDF91CF911F910F9174
:100D0000FF90EF90DF90CF90BF90AF909F908F902B
:100D10007F906F905F904F903F902F900895A3E148
:100D2000B0E0E5E9F6E00C94CB0C7C011B016A0114
:100D3000FC0117821682838181FF66C3BE016F5F4B
:100D40007F4F4B01F7019381F10193FD859193FF53
:100D500081911F01882309F453C3853239F493FD2F
:100D6000859193FF81911F01853239F4B70190E09D
:100D70000E94620E56016501E5CF10E0512C20E083
:100D80002032A0F48B3269F030F4803259F0833293
:100D900069F420612CC08D3239F0803339F4216040
:100DA00026C02260246023C0286021C027FD27C000
:100DB00030ED380F3A3078F426FF06C0FAE01F9F76
:100DC000300D1124132F13C06AE0569E300D1124EC
:100DD000532E20620CC08E3221F426FD11C32064F4
:100DE00006C08C3611F4206802C0883641F4F10147
:100DF00093FD859193FF81911F018111C1CF9BEBE1
:100E0000980F933018F42061805E06C09BE9980F1C
:100E1000933008F0AAC12F7E26FF16E02F73722EA2
:100E2000853621F4F22FF0647F2E08C0863621F437
:100E3000622F6068762E02C01111115077FE07C034
:100E40001C3348F444244394410E27E00BC018306F
:100E500030F4212F06C027E04CE3442E03C027E0E6
:100E600017E0412C560174E0A70EB11CF601608119
:100E7000718182819381042DA4010E94740D6C0103
:100E8000098100FF02C003FF06C071FC07C072FCAD
:100E900008C0612C08C03DE2632E05C02BE2622E23
:100EA00002C090E2692E802F8C7099F1662011F0BB
:100EB00084E001C083E0851510F0512C0BC0581A56
:100EC00073FC08C0B70180E290E00E94620E5A9461
:100ED000C9F7F3CF662029F0B701862D90E00E9474
:100EE000620E03FD03C000E912E002C00CE812E04C
:100EF000F72DF0717F2EF8018491882309F476C2D2
:100F000071108052B70190E00E94620E0F5F1F4F78
:100F1000F2CF77FE0FC04C0C04FF04C08A818133EE
:100F200009F44A94141474F5F8E0F41578F588E09F
:100F3000482E2CC076FC2AC0812F90E08C159D0590
:100F40009CF06CEFC6166FEFD60674F0772D7068C4
:100F5000772E0AC0E2E0F0E0EC0FFD1FE10FF11D7B
:100F60008081803319F411501111F4CF77FE0EC037
:100F700044244394410E812F90E0C816D9062CF4E6
:100F80001C1904C04424439401C010E077FE07C03C
:100F90001C141D043CF496012F5F3F4F05C025E053
:100FA00030E002C021E030E0662011F02F5F3F4FBB
:100FB000112331F0412F50E04F5F5F4F240F351F59
:100FC000452D50E02417350714F4521A01C0512C56
:100FD000872D897049F4552039F0B70180E290E0FF
:100FE0000E94620E5A94F7CF662029F0B701862D31
:100FF00090E00E94620E73FC09C0552039F0B701E1
:1010000080E390E00E94620E5A94F7CF77FE5FC0B3
:101010009C2D8D2DD7FE02C090E080E0692E782EA9
:1010200040E050E0C601841991099D878C879601A4
:1010300026193709280D391D812F90E0EE27FF274B
:10104000E81BF90BFF87EE87FFEF6F167F0669F449
:10105000B7018EE290E02B8B3A8B488B598B0E9424
:10106000620E598948893A892B89C614D70454F0ED
:101070006C857D85661577052CF4F901E40FF51F65
:10108000818101C080E371E0671A71084F5F5F4F93
:10109000EE85FF856E167F066CF0B70190E02B8B16
:1010A0003A8B488B598B0E94620E2B893A8948896A
:1010B0005989CACF6C147D0439F49A81963318F497
:1010C000953311F404FF81E3B70190E04BC08A81AE
:1010D000813309F00F7EB70190E00E94620E11117A
:1010E00005C074FE18C085E490E017C0B7018EE219
:1010F00090E00E94620E82E066246394680EF40120
:10110000E80FF11D8081B70190E00E94620E11503E
:1011100041F3862DF1CF85E690E0B7010E94620E83
:10112000D7FC05C0C114D10439F404FF05C0D19423
:10113000C194D1088DE201C08BE2B70190E00E941A
:10114000620E80E36AE0C616D1042CF08F5FFAE0ED
:10115000CF1AD108F7CFB70190E00E94620EB70115
:10116000C601C0960E94620E41C1833631F08337BA
:1011700079F0833509F058C021C0560172E0A70EFE
:10118000B11CF6018081898301E010E0640114C084
:101190005601F2E0AF0EB11CF601C080D18026FFEF
:1011A00003C0612F70E002C06FEF7FEFC6012B8B91
:1011B0000E94570E8C012B892F7715C05601F2E043
:1011C000AF0EB11CF601C080D18026FF03C0612F95
:1011D00070E002C06FEF7FEFC6012B8B0E944C0EB8
:1011E0008C012B892068722E23FD1AC0852D90E07A
:1011F00008171907A8F4B70180E290E00E94620E78
:101200005A94F4CFF60177FC859177FE81916F01B6
:10121000B70190E00E94620E51105A9401501109DA
:101220000115110579F7E2C0843611F0893651F5C0
:10123000560127FF09C0F4E0AF0EB11CF601608132
:101240007181828193810AC0F2E0AF0EB11CF60178
:1012500060817181882777FD8095982F022F0F7606
:1012600097FF08C090958095709561957F4F8F4F3F
:101270009F4F00682AE030E0A4010E94940EC82E1F
:10128000C8183EC0022F853721F40F7E2AE030E0D7
:101290001DC0097F8F3691F018F4883559F0B0C021
:1012A000803719F0883711F0ABC0006104FF09C026
:1012B000046007C024FF08C0066006C028E030E0D4
:1012C00005C020E130E002C020E132E0560107FF16
:1012D00009C0F4E0AF0EB11CF6016081718182811A
:1012E000938108C0F2E0AF0EB11CF60160817181FC
:1012F00080E090E0A4010E94940EC82EC8180F77D9
:1013000006FF0BC0202F2E7FC11650F404FF0AC029
:1013100002FD08C0202F2E7E05C0DC2C202F03C02C
:10132000DC2C01C0D12E24FF0DC0FE01EC0DF11DFF
:101330008081803311F4297E09C022FF06C0D39436
:10134000D39404C0822F867809F0D39423FD13C070
:1013500020FF06C01C2DD51418F4150D1D19D52C11
:10136000D51468F4B70180E290E02B8B0E94620EE6
:10137000D3942B89F5CFD51410F45D1801C0512CEE
:1013800024FF12C0B70180E390E02B8B0E94620E15
:101390002B8922FF17C021FF03C088E590E002C01F
:1013A00088E790E0B7010CC0822F867859F021FDC4
:1013B00002C080E201C08BE227FD8DE2B70190E020
:1013C0000E94620EC11638F4B70180E390E00E94DB
:1013D000620E1150F7CFCA94F401EC0DF11D80811B
:1013E000B70190E00E94620EC110F5CF552009F4BC
:1013F000C2CCB70180E290E00E94620E5A94F6CF10
:10140000F7018681978102C08FEF9FEF6396E2E13B
:101410000C94E70C5058BB27AA270ED075C166D193
:1014200030F06BD120F031F49F3F11F41EF45BC11A
:101430000EF4E095E7FB51C1E92F77D180F3BA179D
:10144000620773078407950718F071F49EF58FC142
:101450000EF4E0950B2EBA2FA02D0B01B9019001CF
:101460000C01CA01A0011124FF27591B99F0593F13
:1014700050F4503E68F11A16F040A22F232F342F5B
:101480004427585FF3CF469537952795A795F040A9
:101490005395C9F77EF41F16BA0B620B730B840BBE
:1014A000BAF09150A1F0FF0FBB1F661F771F881F76
:1014B000C2F70EC0BA0F621F731F841F48F48795CE
:1014C00077956795B795F7959E3F08F0B3CF9395BD
:1014D000880F08F09927EE0F979587950895D9D032
:1014E00008F481E008950CD00FC107D140F0FED080
:1014F00030F021F45F3F19F0F0C0511139C1F3C051
:1015000014D198F39923C9F35523B1F3951B550BC7
:10151000BB27AA2762177307840738F09F5F5F4FC6
:10152000220F331F441FAA1FA9F333D00E2E3AF007
:10153000E0E830D091505040E695001CCAF729D021
:10154000FE2F27D0660F771F881FBB1F2617370770
:101550004807AB07B0E809F0BB0B802DBF01FF27A0
:1015600093585F4F2AF09E3F510568F0B6C000C106
:101570005F3FECF3983EDCF3869577956795B795DA
:10158000F7959F5FC9F7880F911D9695879597F9F5
:101590000895E1E0660F771F881FBB1F621773076E
:1015A0008407BA0720F0621B730B840BBA0BEE1F83
:1015B00088F7E095089504D06894B111D9C00895D2
:1015C000BCD088F09F5790F0B92F9927B751A0F061
:1015D000D1F0660F771F881F991F1AF0BA95C9F7C7
:1015E00012C0B13081F0C3D0B1E00895C0C0672F00
:1015F000782F8827B85F39F0B93FCCF38695779577
:101600006795B395D9F73EF490958095709561955F
:101610007F4F8F4F9F4F0895E89409C097FB3EF48A
:1016200090958095709561957F4F8F4F9F4F99232F
:10163000A9F0F92F96E9BB279395F69587957795AD
:101640006795B795F111F8CFFAF4BB0F11F460FF6D
:101650001BC06F5F7F4F8F4F9F4F16C0882311F0C5
:1016600096E911C0772321F09EE8872F762F05C0D9
:10167000662371F096E8862F70E060E02AF09A9574
:10168000660F771F881FDAF7880F9695879597F969
:101690000895990F0008550FAA0BE0E8FEEF161603
:1016A0001706E807F907C0F012161306E407F50756
:1016B00098F0621B730B840B950B39F40A2661F0CA
:1016C000232B242B252B21F408950A2609F4A1406D
:1016D000A6958FEF811D811D089597F99F6780E87A
:1016E00070E060E008959FEF80EC089500240A9474
:1016F0001616170618060906089500240A941216ED
:101700001306140605060895092E0394000C11F41F
:10171000882352F0BB0F40F4BF2B11F460FF04C0CC
:101720006F5F7F4F8F4F9F4F089557FD9058440F25
:10173000551F59F05F3F71F04795880F97FB991F30
:1017400061F09F3F79F087950895121613061406ED
:10175000551FF2CF4695F1DF08C01616170618067A
:10176000991FF1CF86957105610508940895E89455
:10177000BB2766277727CB0197F908958ADF08F4FE
:101780008FEF08950BD0C0CFB1DF28F0B6DF18F08F
:10179000952309F0A2CFA7CF1124EACFC6DFA0F38B
:1017A000959FD1F3950F50E0551F629FF001729FF6
:1017B000BB27F00DB11D639FAA27F00DB11DAA1F15
:1017C000649F6627B00DA11D661F829F2227B00D62
:1017D000A11D621F739FB00DA11D621F839FA00DED
:1017E000611D221F749F3327A00D611D231F849F3D
:1017F000600D211D822F762F6A2F11249F57504094
:101800008AF0E1F088234AF0EE0FFF1FBB1F661F2E
:10181000771F881F91505040A9F79E3F510570F0E7
:101820005CCFA6CF5F3FECF3983EDCF386957795CF
:101830006795B795F795E7959F5FC1F7FE2B880FE2
:10184000911D9695879597F9089577DFE0F09E377B
:10185000D8F09639B8F49E3848F4672F782F882747
:10186000985FF9CF86957795679593959539D0F3DD
:10187000B62FB1706B0F711D811D20F48795779580
:101880006795939544C05EC073CF11F40EF42BCFCF
:1018900059C053DFD0F39923D9F3CEF39F57550B9B
:1018A00087FF5ED00024A0E640EA9001805856955C
:1018B000979528F4805C660F771F881F20F0261705
:1018C0003707480730F4621B730B840B202931293A
:1018D0004A2BA69517940794202531254A2758F7B7
:1018E000660F771F881F20F026173707480730F448
:1018F000620B730B840B200D311D411DA09581F7E8
:10190000B901842F9158880F96958795089588235B
:1019100071F4772321F09850872B762F07C0662328
:1019200011F499270DC09051862B70E060E02AF0E9
:101930009A95660F771F881FDAF7880F9695879517
:1019400097F908959F3F31F0915020F4879577954E
:101950006795B795880F911D9695879597F9089586
:1019600091505040660F771F881FD2F7089597FB5C
:10197000072E16F4009407D077FD09D00E94020DBF
:1019800007FC05D03EF4909581959F4F0895709582
:1019900061957F4F08952F923F924F925F926F9281
:1019A0007F928F929F92AF92BF92CF92DF92EF92EF
:1019B000FF920F931F93CF93DF93CDB7DEB7CA1B70
:1019C000DB0B0FB6F894DEBF0FBECDBF09942A889B
:1019D000398848885F846E847D848C849B84AA8443
:1019E000B984C884DF80EE80FD800C811B81AA81D0
:1019F000B981CE0FD11D0FB6F894DEBF0FBECDBF9B
:101A0000ED010895AA1BBB1B51E107C0AA1FBB1F14
:101A1000A617B70710F0A61BB70B881F991F5A957A
:101A2000A9F780959095BC01CD0108958F929F9262
:101A3000AF92BF92CF92DF92EF92FF92CF93DF935C
:101A4000EC01688179818A819B816115710581052D
:101A5000910521F464E279ED8BE597E02DE133EF18
:101A600041E050E00E94F20E49015A019B01AC0195
:101A7000A7EAB1E40E94110F6B017C01ACEEB4EF58
:101A8000A50194010E941F0FC60ED71EE81EF91E65
:101A9000F7FE06C081E0C81AD108E10880E8F80A1C
:101AA000C882D982EA82FB82C6019F77DF91CF91FB
:101AB000FF90EF90DF90CF90BF90AF909F908F906E
:101AC00008950E94160D08958CE091E00E94160D75
:101AD0000895A0E0B0E080930C0190930D01A093D5
:101AE0000E01B0930F010895283008F027E0332746
:101AF000DA01990F311D87FD91600096610571052E
:101B000039F432602E5F3D9330E32A95E1F7089572
:101B10009F3F30F080387105610509F03C5F3C5F04
:101B20003D93913008F08068911DDF93CF931F9310
:101B30000F93FF92EF92192F987F9695E92F969524
:101B40009695E90FFF27E251FD4F99273327EE24A1
:101B5000FF24A701E70105900894079428F4360FA5
:101B6000E71EF81E491F511D660F771F881F991F1A
:101B70000694A1F70590079428F4E70EF81E491F74
:101B8000561FC11D770F881F991F661F0694A1F766
:101B90000590079428F4F80E491F561FC71FD11D42
:101BA000880F991F661F771F0694A1F70590079469
:101BB00020F4490F561FC71FD81F990F661F771FA4
:101BC000881F0694A9F784911095177041F0D69557
:101BD000C79557954795F794E7941A95C1F7E4E9A7
:101BE000F2E0689415901591359165919591059065
:101BF0007FE27395E118F10A430B560BC90BD0092C
:101C0000C0F7E10CF11E431F561FC91FD01D7EF403
:101C1000703311F48A95E6CFE894015030F0080F44
:101C20000AF40027021708F4202F2395022F7A3395
:101C300028F079E37D932A95E9F710C07D932A95E2
:101C400089F6069497956795379517951794E11837
:101C5000F10A430B560BC90BD00998F023957E91DE
:101C600073957A3308F070E37C932013B8F77E9174
:101C700070617D9330F0839571E37D9370E32A95D5
:101C8000E1F71124EF90FF900F911F91CF91DF9119
:101C9000992787FD90950895FC010590615070404B
:101CA0000110D8F7809590958E0F9F1F0895FC0125
:101CB0006150704001900110D8F7809590958E0F7B
:101CC0009F1F08950F931F93CF93DF93182F092F12
:101CD000EB018B8181FD03C08FEF9FEF20C082FF5E
:101CE00010C04E815F812C813D81421753077CF4E7
:101CF000E881F9819F012F5F3F4F3983288310834B
:101D000006C0E885F985812F0995892B29F72E8151
:101D10003F812F5F3F4F3F832E83812F902FDF9195
:101D2000CF911F910F910895FA01AA27283051F100
:101D3000203181F1E8946F936E7F6E5F7F4F8F4FFC
:101D40009F4FAF4FB1E03ED0B4E03CD0670F781F5B
:101D5000891F9A1FA11D680F791F8A1F911DA11D40
:101D60006A0F711D811D911DA11D20D009F4689479
:101D70003F912AE0269F11243019305D3193DEF621
:101D8000CF010895462F4770405D4193B3E00FD0D7
:101D9000C9F7F6CF462F4F70405D4A3318F0495DC2
:101DA00031FD4052419302D0A9F7EACFB4E0A695A5
:101DB0009795879577956795BA95C9F700976105C7
:101DC000710508959B01AC010A2E0694579547951D
:101DD00037952795BA95C9F7620F731F841F951F12
:101DE000A01D0895052E97FB1EF400940E94090F74
:101DF00057FD07D00E94240F07FC03D04EF40C942B
:101E0000090F50954095309521953F4F4F4F5F4FAB
:101E1000089590958095709561957F4F8F4F9F4F56
:101E200008950E94460FA59F900DB49F900DA49F0A
:101E3000800D911D11240895B7FF0C94110F0E947D
:101E4000110F821B930B0895A1E21A2EAA1BBB1B34
:101E5000FD010DC0AA1FBB1FEE1FFF1FA217B30776
:101E6000E407F50720F0A21BB30BE40BF50B661F8C
:101E7000771F881F991F1A9469F760957095809550
:101E800090959B01AC01BD01CF010895A29FB001C7
:101E9000B39FC001A39F700D811D1124911DB29F9E
:0E1EA000700D811D1124911D0895F894FFCF3F
:101EAE00030047888CC4DB6C77B83FE0010000006C
:00000001FF
