:100000000C946D020C948A020C948A020C948A025D
:100010000C948A020C948A020C948A020C948A0230
:100020000C948A020C948A020C942C060C94670699
:100030000C948A020C948A020C948A020C948A0210
:100040000C948A020C948A020C948A020C948A0200
:100050000C948A020C948A020C948A020C948A02F0
:100060000C948A020C9457080C942C080C948A0265
:100070000C948A020C948A020C948A020C948A02D0
:100080000C948A020C948A020C948A020C948A02C0
:100090000C948A020C948A020C948A020C948A02B0
:1000A0000C948A020C948A020C948A02C105BE0543
:1000B000BB05B805B505B205AF05AC05A905A60594
:1000C000A305A0059D059A059705940591058E0544
:1000D0008B058805850582057F057C0579057605F4
:1000E000730570056D056A056705640561055E05A4
:1000F0005B055805550552054F054C054905460554
:10010000430540053D053A053705340531052E0503
:100110002B052805250522051F051C0519051605B3
:10012000130510050D050A05070504050105000165
:10013000000062011200020000740143000300008D
:10014000B7010401030904BB011402030904D1012E
:100150001603030904E9010C0001C11201803601F4
:1001600081361201000202000010C0167A0400015C
:100170000102030109024300020100C03209040028
:100180000001020201000524001001052401010103
:10019000042402060524060001070582031000401E
:1001A00009040100020A00000007050302400000E4
:1001B0000705840240000004030904140359006F7A
:1001C000007500720020004E0061006D00650000A7
:1001D00000160355005300420020005300650072D2
:1001E00000690061006C0000000C03310032003334
:1001F00000340035000000000000000000005F0037
:10020000000007000700147F147F14242A7F2A129D
:10021000231308646236495522500005030000008C
:100220001C2241000041221C0014083E081408084A
:100230003E08080050300000080808080800606008
:10024000000020100804023E5149453E00427F4014
:100250000042615149462141454B311814127F102B
:1002600027454545393C4A4949300171090503365E
:1002700049494936064949291E00363600000056CC
:1002800036000008142241001414141414004122F2
:1002900014080201510906324979413E7E111111BB
:1002A0007E7F494949363E414141227F4141221CDE
:1002B0007F494949417F090909013E4149497A7FFE
:1002C0000808087F00417F41002040413F017F082E
:1002D0001422417F404040407F020C027F7F04088F
:1002E000107F3E4141413E7F090909063E415121AF
:1002F0005E7F09192946464949493101017F0101BB
:100300003F4040403F1F2040201F3F4038403F6358
:100310001408146307087008076151494543007FBA
:1003200041410002040810200041417F0004020105
:100330000204404040404000010204002054545454
:10034000787F484444383844444420384444487F03
:100350003854545418087E0901020C5252523E7F00
:100360000804047800447D40002040443D007F1094
:1003700028440000417F40007C041804787C080475
:10038000047838444444387C1414140808141418AD
:100390007C7C080404084854545420043F44402002
:1003A0003C4040207C1C2040201C3C4030403C44D1
:1003B000281028440C5050503C4464544C440008CD
:1003C00036410000007F0000004136080010080898
:1003D000100878464146786E616E00696E660000CE
:1003E000407A10F35A00A0724E18090010A5D4E804
:1003F0000000E87648170000E40B54020000CA9A97
:100400003B000000E1F505000080969800000040E8
:10041000420F000000A0860100000010270000002D
:1004200000E803000000006400000000000A000073
:100430000000000100000000002C76D888DC674F27
:100440000823DFC1DFAE59E1B1B796E5E3E453C657
:100450003AE651997696E8E6C28426EB898C9B624F
:10046000ED407C6FFCEFBC9C9F40F2BAA56FA5F4F9
:1004700090055A2AF75C936B6CF9676DC11BFCE021
:10048000E40D47FEF520E6B500D0ED902E03009474
:100490003577050080841E080000204E0A00000009
:1004A000C80C333333330F986E12831141EF8D2113
:1004B00014893BE65516CFFEE6DB18D1844B381B7A
:1004C000F77C1D901DA4BBE424203284725E22813F
:1004D00000C9F124ECA1E53D270011241FBECFEF98
:1004E000DAE0DEBFCDBF11E0A0E0B1E0E6EEF6E27B
:1004F00002C005900D92A237B107D9F713E0A2E729
:10050000B1E001C01D92A73FB107E1F70E94DD03F2
:100510000C9471130C9400005198279821985098CE
:100520000895DC010D900020E9F71197A81BB90B85
:10053000BD010E94B30408950F931F932DB73EB7DA
:10054000285030400FB6F8943EBF0FBE2DBFEDB718
:10055000FEB7319602E711E0ADB7BEB712961C9315
:100560000E93119728E030E03383228320E031E0BE
:1005700035832483978386830E94E2122DB73EB78A
:10058000285F3F4F0FB6F8943EBF0FBE2DBFC80186
:100590000E9491021F910F9108958FE30E94C40A57
:1005A0008AE090E06AE070E043E051E021E00E94E0
:1005B0006D0A0E94900A0E94E2030E94FB038823B6
:1005C000E1F30E947E088AE090E06AE070E042E198
:1005D00051E021E00E946D0A0E94900A80E291E0C1
:1005E0000E94910208958F929F92AF92BF92CF92F4
:1005F000EF920F931F93BAEE8B2EB1E09B2EC401A6
:1006000040E050E068E172E400E010E020EA31E40C
:10061000A8E0EA2EF8E0CF2EE2E6AE2EE1E0BE2E14
:100620000E94120B0E947E08C4010E943A0B0E9495
:10063000900A1F910F91EF90CF90BF90AF909F9035
:100640008F900895E1E6F0E080E8808381E0808388
:100650008FE30E94C40A0E94CD020E94F3020E940E
:100660008C0208950F931F93CF93DF9389B18695E2
:1006700080FF03C00FEF1FEF02C000E010E01F9BE0
:1006800002C001E010E083B1869580FF03C0CFEF88
:10069000DFEF02C0C0E0D0E0489B02C0C1E0D0E084
:1006A0000E9423048823C9F00E94FE03813691052D
:1006B00019F4CFEFDFEF17C08436910519F4C1E0CC
:1006C000D0E011C08337910519F401E010E005C0B6
:1006D0008737910511F40FEF1FEF209721F40115D3
:1006E000110509F465C0BE01882777FD8095982F14
:1006F0000E9472109B01AC016091EA017091EB01C4
:100700008091EC019091ED010E946F0F6093EA01DE
:100710007093EB018093EC019093ED01B801882771
:1007200077FD8095982F0E9472109B01AC0160911B
:10073000EE017091EF018091F0019091F1010E9422
:100740006F0F6093EE017093EF018093F00190932F
:10075000F1010E947E088AEE91E00E943A0B0E940D
:10076000900A8EE491E00E9491026091EA017091FA
:10077000EB018091EC019091ED010E943F10DC01B2
:10078000CB010E949C028CE20E9451046091EE0118
:100790007091EF018091F0019091F1010E943F1062
:1007A000DC01CB010E949C028EE591E00E94910247
:1007B000DF91CF911F910F9108950E9422030E9413
:1007C0003203FDCF81E08093D70080EA8093D80088
:1007D00082E189BD09B400FEFDCF80E98093D80095
:1007E0001092E00010927A0110927B018CE08093CD
:1007F000E2007894089580917A0108952FB7F894D3
:1008000080917A01882369F083E08093E9009BE678
:100810008091E80085FD09C082FF03C09093E80045
:10082000F7CF2FBF2FEF3FEF0CC09091F1008091D9
:10083000E80085FD03C08BE68093E8002FBF292FD9
:1008400030E0C90108952FB7F89480917A01882388
:1008500011F490E010C083E08093E9009091F200E1
:10086000992349F48091E80082FF05C085FD03C00B
:100870008BE68093E8002FBF892F089580917A013D
:10088000882371F09FB7F89483E08093E9002BE60A
:1008900002C02093E8008091E80085FDFACF9FBF59
:1008A0000895482F80917A018823D9F12FB7F894C1
:1008B00084E08093E90080917D01882341F080915C
:1008C000E80085FD02C02FBF12C010927D019091FB
:1008D000E400975E34E08091E80085FD13C02FBFEF
:1008E0008091E400891729F481E080937D018FEFE6
:1008F000089580917A018823A1F02FB7F89430935E
:10090000E900E9CF4093F1008091E80085FD03C044
:100910008AE38093E80085E080937C012FBF80E02C
:1009200008958FEF0895282F80917A01882351F040
:100930009FB7F89484E08093E9008091E80085FDFA
:1009400003C09FBF8FEF08952093F1008091E800CE
:1009500085FD03C08AE38093E80085E080937C01F5
:100960009FBF80E00895CF93DF93EC0180917A01DF
:10097000882309F41CC13FB7F89484E08093E90010
:1009800080917D01882309F408C18091E80085FDEC
:1009900002C03FBF0CC110927D01FFC09091E400E6
:1009A000975E8091E80085FD13C03FBF8091E40011
:1009B000891721F481E080937D01F9C080917A014B
:1009C000882309F4F4C03FB7F894B093E900E9CF65
:1009D0008091F200242F281B822F90E0681779075E
:1009E00008F4262F822F90E08134910508F0C6C0CC
:1009F0008A5A9F4FFC01EE0FFF1F0590F491E02DE6
:100A0000099489918093F10089918093F1008991F3
:100A10008093F10089918093F10089918093F10096
:100A200089918093F10089918093F100899180935D
:100A3000F10089918093F10089918093F10089916F
:100A40008093F10089918093F10089918093F10066
:100A500089918093F10089918093F100899180932D
:100A6000F10089918093F10089918093F10089913F
:100A70008093F10089918093F10089918093F10036
:100A800089918093F10089918093F10089918093FD
:100A9000F10089918093F10089918093F10089910F
:100AA0008093F10089918093F10089918093F10006
:100AB00089918093F10089918093F10089918093CD
:100AC000F10089918093F10089918093F1008991DF
:100AD0008093F10089918093F10089918093F100D6
:100AE00089918093F10089918093F100899180939D
:100AF000F10089918093F10089918093F1008991AF
:100B00008093F10089918093F10089918093F100A5
:100B100089918093F10089918093F100899180936C
:100B2000F10089918093F10089918093F10089917E
:100B30008093F10089918093F10089918093F10075
:100B400089918093F10089918093F100899180933C
:100B5000F10089918093F10089918093F10089914E
:100B60008093F10089918093F10089918093F10045
:100B700089918093F10089918093F100899180930C
:100B8000F1008091E80085FD02C05093E800621BEF
:100B90007109A0937C013FBF04C0B4E040E45AE374
:100BA000A5E06115710509F0F9CE80E001C08FEF75
:100BB000DF91CF9108959FB7F89480917C018823AD
:100BC00041F084E08093E9008AE38093E80010928A
:100BD0007C019FBF089560916A0170916B018091C3
:100BE0006C0190916D01089580916E01089580913E
:100BF0006F01089580917001089580917B0108959F
:100C0000282F9FB7F89480917A01882339F082E0E9
:100C10008093E9008091E80085FD03C09FBF8FEFBE
:100C2000089581EA8093F10080E28093F1001092B0
:100C3000F1001092F1001092F1001092F10081E0A9
:100C40008093F1001092F1002093F1008AE38093E9
:100C5000E8009FBF80E008951F920F920FB60F9299
:100C600011248F939F938091E1001092E100982FBF
:100C700083FF11C01092E90081E08093EB00109295
:100C8000EC0082E18093ED0088E08093F000109208
:100C90007A0110927B0192FF13C080917A01882320
:100CA00079F080917C01882359F0815080937C01F8
:100CB000882331F484E08093E9008AE38093E8009C
:100CC0009F918F910F900FBE0F901F9018951F92BC
:100CD0000F920FB60F9211240F931F932F933F93F0
:100CE0004F935F936F937F938F939F93AF93BF9334
:100CF000EF93FF931092E9008091E80083FF3CC1DD
:100D00004091F1003091F1008091F100682F70E086
:100D10002091F100922F80E0682B792B8091F100D7
:100D2000A82FB0E02091F100922F80E0A82BB92BE2
:100D30001091F1000091F10082EF8093E8003630CD
:100D400009F05AC025E331E0A90145505040F901AE
:100D50003797859194918617970701F5FA01859148
:100D600094918A179B07D1F49A012E5F3F4FF901A6
:100D7000659174912E5F3F4FF9014491212F30E02E
:100D8000902F80E0282B392B2F3F310519F010F0E0
:100D90002FEF30E0241758F4422F09C0295F3F4F4E
:100DA000495F5F4FF1E02F353F0789F6E5C05EEF01
:100DB0008091E800282F30E0C90185709070892B60
:100DC000B9F322FDDCC0342F413108F030E1232F8C
:100DD000CB0106C0FC010196E491E093F1002150A3
:100DE0002223C1F7630F711D431B5093E800442376
:100DF000F9F63031E9F2C3C0353061F48EEF8093FB
:100E0000E8008091E80080FFFCCF862F8068809307
:100E1000E300B5C0393051F5442309F0ADC060930B
:100E20007A0110927B0110927C018EEF8093E80092
:100E300088E591E021E02093E900FC010196E4912E
:100E4000E093EB00EE2369F0AC014F5F5F4FFC01D4
:100E500084918093EC00CA010196FA013491309399
:100E6000ED002F5F253039F78EE181C0383061F415
:100E7000403809F081C08091E80080FFFCCF80916C
:100E80007A018093F10050C0313289F4413A09F07F
:100E900073C08091E80080FFFCCFEAE6F1E0819129
:100EA0008093F10081E0E137F807C9F73DC03032A7
:100EB000A1F4413209F060C08091E80082FFFCCFCC
:100EC000EAE6F1E08091F100819381E0E137F807F3
:100ED000C9F78BEF8093E80027C0323251F44132DA
:100EE00009F04AC060937B018091E80080FFFCCF4D
:100EF0001BC03323E9F48091E80080FFFCCF423827
:100F000011F080E00DC0A093E9008091EB0090E02B
:100F100025E0969587952A95E1F781701092E90072
:100F20008093F1001092F1008EEF8093E80027C0CB
:100F3000313011F0333001F54230F1F4672BE1F438
:100F40002A2F2F77822F81508430B0F48EEF809338
:100F5000E8002093E900333079F089E18093EB00D9
:100F600081E090E002C0880F991F2A95E2F78093F4
:100F7000EA001092EA0003C081E28093EB00FF9147
:100F8000EF91BF91AF919F918F917F916F915F9101
:100F90004F913F912F911F910F910F900FBE0F9086
:100FA0001F9018959B01AC01F89460E079E08DE307
:100FB00090E00E946F112150310941095109569565
:100FC0004795379527953093CD002093CC0082E04C
:100FD0008093C80088E98093C90086E08093CA00A6
:100FE0001092C0011092C10110927E0110927F01F7
:100FF000789408959091C1019F5F983208F090E035
:101000002091C0012917E1F3E92FF0E0EE53FE4FE4
:1010100080839093C10188EB8093C90008959091DB
:101020007F0180917E019817D1F390917E019F5F9F
:10103000903408F090E0E92FF0E0E058FE4F808116
:1010400090937E01089580917F0190917E01891790
:1010500008F4805C891B08951F920F920FB60F92BF
:1010600011248F939F93EF93FF939091C1018091EF
:10107000C001981304C088E98093C9000FC0809113
:10108000C0018F5F883208F080E0E82FF0E0EE5377
:10109000FE4F90819093CE008093C001FF91EF911D
:1010A0009F918F910F900FBE0F901F9018951F92D8
:1010B0000F920FB60F9211242F938F939F93EF935C
:1010C000FF939091CE0080917F018F5F803408F074
:1010D00080E020917E01821739F0E82FF0E0E0589F
:1010E000FE4F908380937F01FF91EF919F918F91AD
:1010F0002F910F900FBE0F901F901895EFEFF1E01A
:10110000119283E0E73FF807D9F708959C0197FD16
:1011100037C077FD35C08435910594F5603371058E
:101120007CF5CB0153E0959587955A95E1F767706B
:10113000442399F0E4E58E9FF0011124E20FF31FA0
:10114000E150FE4F81E090E002C0880F991F6A9540
:10115000E2F72081282B20830895E4E58E9FF0019B
:101160001124E20FF31FE150FE4F81E090E002C036
:10117000880F991F6A95E2F78095208128232083A4
:1011800008952F923F924F925F926F927F928F922B
:101190009F92AF92BF92CF92DF92EF92FF920F9306
:1011A0001F93DF93CF93CDB7DEB72D970FB6F8948B
:1011B000DEBF0FBECDBF7C016B014A0139010B8739
:1011C00084179507F1F45B010FC0C701B5014B858A
:1011D0000E948608C614D70424F40894A11CB11CEC
:1011E00003C00894A108B108C614D7042CF46A14EB
:1011F0007B040CF4FAC0E9CFA614B7040CF4F5C0D4
:10120000E4CF62177307F1F45C010FC0C501B601AA
:101210004B850E948608E814F90424F40894A11C64
:10122000B11C03C00894A108B108E814F9042CF417
:101230008A149B040CF4D9C0E9CFA814B9040CF4A7
:10124000D4C0E4CF4817590724F447017A013B0181
:101250006901B4016E197F09882777FD8095982F61
:101260000E9472106F83788789879A87B3016C19FF
:101270007D09882777FD8095982F0E9472106B83D7
:101280007C838D839E832F81388549855A850E9472
:10129000D70F1B012C0120E030E040E050E00E941D
:1012A000221187FF04C057FA509457F85094DA82FD
:1012B000C9820F2EF0E0AF2EF0E0BF2EF0E0CF2E6F
:1012C000F0E0DF2EF02D7DC0C70169817A814B856A
:1012D0000E948608C601B501A20191010E946F0F0C
:1012E0003AC0C70169817A814B850E9486081D86B4
:1012F0001C866B817C818D819E8120E030E040E006
:1013000050E00E942211181624F421E030E03D87BD
:101310002C8700E010E06B817C818D819E8120E034
:1013200030E040E050E00E94D30F882314F401E045
:1013300010E08C859D85801B910BE981FA81E80F77
:10134000F91FFA83E983C601B50120E030E040E8E7
:101350005FE30E946E0F5B016C0120E030E040E033
:101360005FE30E9422118823CCF06B817C818D8108
:101370009E8120E030E040E050E00E9422111816EB
:101380003CF429813A81621673060CF0AACF06C09C
:1013900089819A81861597050CF0A3CF6F81788596
:1013A00089859A8520E030E040E050E00E942211DB
:1013B000181624F40894E11CF11C03C00894E108F9
:1013C000F1086F81788589859A8520E030E040E0DA
:1013D00050E00E942211181624F48E149F042CF061
:1013E00073CFE814F9040CF06FCF2D960FB6F89474
:1013F000DEBF0FBECDBFCF91DF911F910F91FF9048
:10140000EF90DF90CF90BF90AF909F908F907F90A4
:101410006F905F904F903F902F9008955F926F92E2
:101420007F928F929F92AF92BF92CF92DF92EF9274
:10143000FF920F931F93CF93DF934B01522E25E022
:10144000429FA0011124E7E5EE2EE1E0FE2EE40E1E
:10145000F51E8C0171E0672E712C6CE5A62E61E003
:10146000B62EA40EB51EF7018491552009F480957F
:10147000C0E0D0E0C82EDD24BE01680D791DA301B7
:101480000C2E02C0440F551F0A94E2F74C215D2137
:101490000C2E02C0559547950A94E2F7C8010E94A8
:1014A00086082196C830D10539F70894E11CF11C53
:1014B0000F5F1F4FEA14FB04B1F6DF91CF911F912C
:1014C0000F91FF90EF90DF90CF90BF90AF909F90E3
:1014D0008F907F906F905F900895DF92EF92FF92D0
:1014E0000F931F93CF93DF937B01EA01D22E082F36
:1014F00010E008C0802F90E0B7012D2D0E940E0A49
:101500000B5F1F5FFE01E10FF11D4081442391F746
:10151000DF91CF911F910F91FF90EF90DF90089591
:10152000CF93DF9380E060E00E94050BCFEFD1E026
:1015300081E069910E94A30A83E0C73FD807C1F701
:10154000DF91CF91089595B18295880F807E9F7D20
:10155000982B95B95F9827E030E070E08F98CB0129
:10156000022E02C0959587950A94E2F780FF02C08B
:101570002E9A01C02E988F9A215030408FEF2F3F26
:10158000380761F75F9A08951F93182F579A249A86
:10159000259A269A879A2C985F9A2C9A80E061E285
:1015A0000E94A30A106880E0612F0E94A30A80E0D5
:1015B00064E00E94A30A80E063E10E94A30A80E045
:1015C0006CE00E94A30A80E060E20E94A30A80E02F
:1015D0006CE00E94A30A80E060E40E94A30A80E01D
:1015E00060E80E94A30A1F910895CF93DF93C0E0A3
:1015F000D0E081E060E00E94A30A219681E0C83F2C
:10160000D807B9F7DF91CF9108951F93182F606421
:1016100080E00E94A30A106880E0612F0E94A30A64
:101620001F910895AF92BF92CF92EF920F931F93A5
:10163000FC01408351836283738304831583268373
:101640003783E08AC18AB48AA38A81E0828B80E0F2
:1016500090E0A0E0B0E080879187A287B38784877D
:101660009587A687B7871F910F91EF90CF90BF9076
:10167000AF9008952F923F924F925F926F927F9218
:101680008F929F92AF92BF92CF92DF92EF92FF9292
:101690000F931F93CF93DF938C01DC0152968C91B3
:1016A0005297882309F480C06D917D918D919C9112
:1016B0000E9426110E943F103B01F80124813581D0
:1016C00046815781643571050CF06EC0D801509683
:1016D0008C91C82FD0E0CE01860D971D18161906E3
:1016E0000CF062C0CA01B9010E9426110E943F108D
:1016F0004B01603371050CF057C0F80181899401EA
:10170000280F311D121613060CF04EC057E0A52EFF
:10171000B12CAC0EBD1E43E0B594A7944A95E1F7F9
:10172000EE24FF24CC24DD2437E0232E312C30C0DE
:10173000CE0123E0959587952A95E1F7D801539638
:10174000ED91FC915497EC0DFD1DE80FF91F4081C0
:1017500050E0CE0187709070F101E81BF90B02C0D8
:1017600055954795EA95E2F74170CE01860D971D94
:10177000B2010E9486082196D80150968C9190E083
:10178000C817D907ACF20894E11CF11CCA0CDB1C89
:10179000F801818990E0E816F90634F4C0E0D0E061
:1017A0002701480C591CE8CFDF91CF911F910F9171
:1017B000FF90EF90DF90CF90BF90AF909F908F9071
:1017C0007F906F905F904F903F902F900895A1E190
:1017D000B0E0EDEEFBE00C9491113C017F876E8749
:1017E0006A01FC0117821682838181FD03C06FEFBD
:1017F0007FEF6FC39E012F5F3F4F398B288BF30123
:101800002381EE85FF8523FD859123FF8191FF874D
:10181000EE87882309F45AC3853251F4EE85FF859B
:1018200023FD859123FF8191FF87EE87853229F47F
:1018300090E0B3010E94B612E2CF982F10E0882406
:1018400099241032B0F49B3269F09C3228F4903223
:1018500051F0933271F40BC09D3239F0903349F45A
:10186000116028C01260146025C0186023C0106188
:1018700021C017FD2AC0892F80538A3078F416FFC3
:1018800006C0FAE09F9E902C1124980E13C03AE0F7
:10189000839E802C1124880E10620CC09E3221F48D
:1018A00016FD14C3106406C09C3611F4106802C003
:1018B000983659F4EE85FF8523FD959123FF91918C
:1018C000FF87EE87992309F0BCCF892F8554833099
:1018D00020F4812F8061905E07C0892F8556833068
:1018E00008F09FC1812F8F7E86FD02C076E0972E83
:1018F0006FE3F62EF822953619F4F0E4FF2A07C0BC
:10190000963619F420E8F22A02C091109A94F7FE54
:101910000AC03BE3391518F45CE3B52E02C0B92CBC
:10192000B39427E009C047E0491520F4BB2447E001
:10193000942EF7CF292DBB24C60104969D878C8752
:10194000F6016081718182819381AE014F5F5F4FAB
:101950000B2D0E94C8116C010981202E332400FF39
:1019600004C003FD02C01DE209C0F1FE02C01BE27B
:1019700005C0F2FC02C010E001C010E2C1018C7091
:101980009070892BB9F1112311F483E001C084E038
:10199000881510F088240AC0881AF3FC07C080E27A
:1019A00090E0B3010E94B6128A94C9F7112329F07E
:1019B000812F90E0B3010E94B61223FE03C007ED11
:1019C00013E00EC00BED13E00BC0E114F10409F0BD
:1019D000805290E0B3010E94B6120F5F1F4F05C006
:1019E000EF2CFF24F0E1EF22FF24F80184918823FB
:1019F00061F714C1F7FE12C0BC0C24FE04C08A813A
:101A0000813309F4BA941B141CF0BB24B3942DC089
:101A1000F8E0FB1550F538E0B32E27C0F6FC25C0E2
:101A2000892D90E08C159D054CF02CEFC2162FEF00
:101A3000D20624F030E8F32A01C09A94992049F0A4
:101A4000E2E0F0E0EC0FFD1FE90DF11D8081803335
:101A5000A1F3F7FE0AC0B92CB394892D90E0C81603
:101A6000D90614F0992401C09C18F7FC03C025E0A6
:101A700030E009C01C141D041CF021E030E003C05C
:101A800096012F5F3F4F112311F02F5F3F4F992099
:101A900029F0892D90E00196280F391F882D90E0BC
:101AA0002817390714F0882401C0821A4F2C5524B6
:101AB000C20189709070892B39F008C080E290E0F3
:101AC000B3010E94B6128A948820C1F7112329F02D
:101AD000812F90E0B3010E94B61243FE07C008C0F8
:101AE00080E390E0B3010E94B6128A948820C1F787
:101AF000F7FE46C08601D7FE02C000E010E0760186
:101B00000894E11CF11CE01AF10A41E050E04C0F8E
:101B10005D1FE40EF51E26014B185108892D90E03B
:101B2000AA24BB24A81AB90A5FEF0F3F150729F4AE
:101B30008EE290E0B3010E94B612C016D10634F0D6
:101B4000401651061CF4F701808101C080E301506A
:101B500010400894E11CF11C0A151B052CF090E0C4
:101B6000B3010E94B612E0CF0C151D0539F49A811D
:101B7000963318F4953311F424FE81E390E04BC0C2
:101B80008A81813309F00F7E90E0B3010E94B61282
:101B90009920A1F08EE290E0B3010E94B61212E00B
:101BA000E1E0F0E0EC0FFD1FE10FF11D1F5F808110
:101BB00090E0B3010E94B6129A9491F744FC03C0DE
:101BC00085E690E002C085E490E0B3010E94B61281
:101BD000D7FC05C0C114D10441F404FF06C0D09461
:101BE000C194D108D3948DE201C08BE290E0B3019F
:101BF0000E94B61280E305C08F5F26EF3FEFC20E52
:101C0000D31E3AE0C316D104BCF790E0B3010E94A2
:101C1000B612C601C096B3010E94B612CC84DD8410
:101C200052C1933631F0933799F0933509F059C08A
:101C300023C0F601808189835E010894A11CB11C38
:101C400022E030E0C20ED31E21E0E22EF12C12C0C1
:101C5000F601A080B18016FD03C06FEF7FEF02C0D8
:101C6000692D70E022E030E0C20ED31EC5010E9453
:101C7000AB127C011F7713C0F601A080B18016FD66
:101C800003C06FEF7FEF02C0692D70E022E030E00B
:101C9000C20ED31EC5010E94A0127C01106813FF62
:101CA00007C01BC080E290E0B3010E94B6128A9484
:101CB000882D90E0E816F906A8F30FC0F50117FD8E
:101CC000859117FF81915F0190E0B3010E94B612E8
:101CD00081108A940894E108F108E114F10471F785
:101CE000F2C0943611F0993689F517FF08C0F60155
:101CF000208131814281538184E090E00AC0F60165
:101D0000808191819C01442737FD4095542F82E0CA
:101D100090E0C80ED91E9FE6F92EF12257FF09C0A8
:101D200050954095309521953F4F4F4F5F4F90E82C
:101D3000F92ACA01B901AE014F5F5F4F2AE030E0D6
:101D40000E941313E82EE889EE1A41C0953721F45A
:101D50001F7E2AE030E01CC0197F9F3661F090376B
:101D600020F4983509F0B2C00FC0903739F0983799
:101D700009F0ACC004C028E030E00AC0106114FDD6
:101D8000146020E130E004C014FD166020E132E070
:101D900017FF08C0F601608171818281938144E060
:101DA00050E008C0F60180819181BC0180E090E0A4
:101DB00042E050E0C40ED51EAE014F5F5F4F0E945F
:101DC0001313E82E5889E51A8FE7F82EF122F6FE54
:101DD0000BC08EEFF822E91438F4F4FE07C0F2FCD1
:101DE00005C09FEEF92202C01E2D01C0192DF4FE80
:101DF0000DC0FE01EE0DF11D8081803319F4E9EE76
:101E0000FE2208C01F5FF2FE05C003C08F2D86783A
:101E100009F01F5F0F2DF3FC14C0F0FE0FC0181562
:101E200010F09E2C0BC09E2C980C911A182D06C0F9
:101E300080E290E0B3010E94B6121F5F1815C0F354
:101E400004C0181510F4811A01C0882404FF0FC0C3
:101E500080E390E0B3010E94B61202FF1DC001FDB5
:101E600003C088E790E00EC088E590E00BC0802FAB
:101E7000867891F001FF02C08BE201C080E2F7FC9E
:101E80008DE290E0B3010E94B61206C080E390E0BC
:101E9000B3010E94B6129A94E914C0F3EA94E1E007
:101EA000F0E0EC0FFD1FEE0DF11D808190E0B3011D
:101EB0000E94B612EE2091F706C080E290E0B301D6
:101EC0000E94B6128A948820C1F799CCF3016681EA
:101ED0007781CB016196E2E10C94AD115058BB279C
:101EE000AA270ED075C166D130F06BD120F031F445
:101EF0009F3F11F41EF45BC10EF4E095E7FB51C166
:101F0000E92F77D180F3BA17620773078407950723
:101F100018F071F49EF58FC10EF4E0950B2EBA2FD8
:101F2000A02D0B01B90190010C01CA01A0011124DF
:101F3000FF27591B99F0593F50F4503E68F11A168B
:101F4000F040A22F232F342F4427585FF3CF46951C
:101F500037952795A795F0405395C9F77EF41F163E
:101F6000BA0B620B730B840BBAF09150A1F0FF0F08
:101F7000BB1F661F771F881FC2F70EC0BA0F621FF4
:101F8000731F841F48F4879577956795B795F795E4
:101F90009E3F08F0B3CF9395880F08F09927EE0F76
:101FA000979587950895D9D008F481E008950CD0CD
:101FB0000FC107D140F0FED030F021F45F3F19F09F
:101FC000F0C0511139C1F3C014D198F39923C9F36A
:101FD0005523B1F3951B550BBB27AA27621773072F
:101FE000840738F09F5F5F4F220F331F441FAA1FE3
:101FF000A9F333D00E2E3AF0E0E830D091505040A3
:10200000E695001CCAF729D0FE2F27D0660F771F50
:10201000881FBB1F261737074807AB07B0E809F032
:10202000BB0B802DBF01FF2793585F4F2AF09E3FC7
:10203000510568F0B6C000C15F3FECF3983EDCF399
:10204000869577956795B795F7959F5FC9F7880F40
:10205000911D9695879597F90895E1E0660F771F92
:10206000881FBB1F621773078407BA0720F0621B23
:10207000730B840BBA0BEE1F88F7E095089504D01C
:102080006894B111D9C00895BCD088F09F5790F0E2
:10209000B92F9927B751A0F0D1F0660F771F881F8D
:1020A000991F1AF0BA95C9F712C0B13081F0C3D0A8
:1020B000B1E00895C0C0672F782F8827B85F39F046
:1020C000B93FCCF3869577956795B395D9F73EF4EC
:1020D00090958095709561957F4F8F4F9F4F089594
:1020E000E89409C097FB3EF49095809570956195B2
:1020F0007F4F8F4F9F4F9923A9F0F92F96E9BB2768
:102100009395F695879577956795B795F111F8CFE3
:10211000FAF4BB0F11F460FF1BC06F5F7F4F8F4F4E
:102120009F4F16C0882311F096E911C0772321F044
:102130009EE8872F762F05C0662371F096E8862FDC
:1021400070E060E02AF09A95660F771F881FDAF733
:10215000880F9695879597F90895990F0008550F60
:10216000AA0BE0E8FEEF16161706E807F907C0F01D
:1021700012161306E407F50798F0621B730B840B25
:10218000950B39F40A2661F0232B242B252B21F4FF
:1021900008950A2609F4A140A6958FEF811D811D9F
:1021A000089597F99F6780E870E060E008959FEFD9
:1021B00080EC089500240A941616170618060906DE
:1021C000089500240A9412161306140605060895AD
:1021D000092E0394000C11F4882352F0BB0F40F435
:1021E000BF2B11F460FF04C06F5F7F4F8F4F9F4F75
:1021F000089557FD9058440F551F59F05F3F71F0F7
:102200004795880F97FB991F61F09F3F79F087955D
:102210000895121613061406551FF2CF4695F1DFE6
:1022200008C0161617061806991FF1CF8695710576
:10223000610508940895E894BB2766277727CB01AA
:1022400097F908958ADF08F48FEF0895DADFE0F058
:102250009E37D8F09639B8F49E3848F4672F782F17
:102260008827985FF9CF86957795679593959539E7
:10227000D0F3B62FB1706B0F711D811D20F48795BF
:1022800077956795939502C01CC0D6CF882371F4CB
:10229000772321F09850872B762F07C0662311F4FF
:1022A00099270DC09051862B70E060E02AF09A9536
:1022B000660F771F881FDAF7880F9695879597F92D
:1022C00008959F3F31F0915020F487957795679559
:1022D000B795880F911D9695879597F90895A1E276
:1022E0001A2EAA1BBB1BFD010DC0AA1FBB1FEE1F90
:1022F000FF1FA217B307E407F50720F0A21BB30BDB
:10230000E40BF50B661F771F881F991F1A9469F756
:1023100060957095809590959B01AC01BD01CF01B2
:1023200008952F923F924F925F926F927F928F9279
:102330009F92AF92BF92CF92DF92EF92FF920F9354
:102340001F93CF93DF93CDB7DEB7CA1BDB0B0FB65E
:10235000F894DEBF0FBECDBF09942A88398848881B
:102360005F846E847D848C849B84AA84B984C884B1
:10237000DF80EE80FD800C811B81AA81B981CE0FA8
:10238000D11D0FB6F894DEBF0FBECDBFED0108958D
:10239000283008F027E03327DA01990F311D87FD37
:1023A000916000966105710539F432602E5F3D93AE
:1023B00030E32A95E1F708959F3F30F080387105AA
:1023C000610509F03C5F3C5F3D93913008F0806807
:1023D000911DDF93CF931F930F93FF92EF92192FCD
:1023E000987F9695E92F96959695E90FFF27E75CDC
:1023F000FB4F99273327EE24FF24A701E70105901F
:102400000894079428F4360FE71EF81E491F511D43
:10241000660F771F881F991F0694A1F705900794F0
:1024200028F4E70EF81E491F561FC11D770F881F9D
:10243000991F661F0694A1F70590079428F4F80EDB
:10244000491F561FC71FD11D880F991F661F771F71
:102450000694A1F70590079420F4490F561FC71F53
:10246000D81F990F661F771F881F0694A9F78491BC
:102470001095177041F0D695C79557954795F794E5
:10248000E7941A95C1F7EFEDF3E068941590159174
:1024900035916591959105907FE27395E118F10A68
:1024A000430B560BC90BD009C0F7E10CF11E431FBB
:1024B000561FC91FD01D7EF4703311F48A95E6CFE4
:1024C000E894015030F0080F0AF40027021708F4CE
:1024D000202F2395022F7A3328F079E37D932A95D4
:1024E000E9F710C07D932A9589F60694979567952C
:1024F000379517951794E118F10A430B560BC90B42
:10250000D00998F023957E9173957A3308F070E3A3
:102510007C932013B8F77E9170617D9330F08395A2
:1025200071E37D9370E32A95E1F71124EF90FF901A
:102530000F911F91CF91DF91992787FD9095089575
:10254000FC010590615070400110D8F7809590957E
:102550008E0F9F1F0895FC01615070400190011083
:10256000D8F7809590958E0F9F1F08950F931F9316
:10257000CF93DF938C01EB018B8181FF1BC082FF26
:102580000DC02E813F818C819D812817390764F40D
:10259000E881F9810193F983E88306C0E885F9852C
:1025A000802F0995892B31F48E819F8101969F831D
:1025B0008E8302C00FEF1FEFC801DF91CF911F91F3
:1025C0000F910895AEE0B0E0E8EEF2E10C949F11B7
:1025D0000D891E898F89988D97FF02C080E090E851
:1025E00001979E838D831A83098386E08C839E01E5
:1025F000255E3F4FCE010196698D7A8DA9010E941B
:10260000E70B4D815E8157FD0AC02F813885421747
:1026100053070CF49A01020F131FF80110822E9633
:10262000E4E00C94BB11FA01AA27283051F12031C3
:1026300081F1E8946F936E7F6E5F7F4F8F4F9F4F56
:10264000AF4FB1E03ED0B4E03CD0670F781F891F98
:102650009A1FA11D680F791F8A1F911DA11D6A0F66
:10266000711D811D911DA11D20D009F468943F9119
:102670002AE0269F11243019305D3193DEF6CF0118
:102680000895462F4770405D4193B3E00FD0C9F7DE
:10269000F6CF462F4F70405D4A3318F0495D31FD4B
:1026A0004052419302D0A9F7EACFB4E0A69597959E
:1026B000879577956795BA95C9F700976105710574
:1026C00008959B01AC010A2E0694579547953795BE
:1026D0002795BA95C9F7620F731F841F951FA01D18
:0626E0000895F894FFCFFD
:1026E600256400436F6E6E656374205553422E2E2B
:1026F6002E0055534220636F6E6E656374656400E9
:10270600506C656173652070726573732057204144
:102716002053204420746F20636F6E74726F6C2098
:1027260074686520737072697465210D0A004D6FB7
:10273600766564206865726F20746F202800290D05
:102746000A003C42A581A599423C00E10000000038
:02275600080079
:00000001FF
