:100000000C946D020C948A020C948A020C948A025D
:100010000C948A020C948A020C948A020C948A0230
:100020000C948A020C948A020C949C050C94D705BB
:100030000C948A020C948A020C948A020C948A0210
:100040000C948A020C948A020C948A020C948A0200
:100050000C948A020C948A020C948A020C948C02EE
:100060000C948A020C94C7070C949C070C948A0287
:100070000C948A020C948A020C948A020C948A02D0
:100080000C948A020C948A020C948A020C948A02C0
:100090000C948A020C948A020C948A020C948A02B0
:1000A0000C948A020C948A020C948A0231052E0563
:1000B0002B052805250522051F051C051905160514
:1000C000130510050D050A05070504050105FE04C5
:1000D000FB04F804F504F204EF04EC04E904E6047C
:1000E000E304E004DD04DA04D704D404D104CE042C
:1000F000CB04C804C504C204BF04BC04B904B604DC
:10010000B304B004AD04AA04A704A404A1049E048B
:100110009B049804950492048F048C04890486043B
:10012000830480047D047A0477047404710400015C
:10013000000062011200020000740143000300008D
:10014000B7010401030904BB011402030904D1012E
:100150001603030904E9010C0001C11201803601F4
:1001600081361201000202000010C0167A0400015C
:100170000102030109024300020100C03209040028
:100180000001020201000524001001052401010103
:10019000042402060524060001070582031000401E
:1001A00009040100020A00000007050302400000E4
:1001B0000705840240000004030904140359006F7A
:1001C000007500720020004E0061006D00650000A7
:1001D00000160355005300420020005300650072D2
:1001E00000690061006C0000000C03310032003334
:1001F00000340035000000000000000000005F0037
:10020000000007000700147F147F14242A7F2A129D
:10021000231308646236495522500005030000008C
:100220001C2241000041221C0014083E081408084A
:100230003E08080050300000080808080800606008
:10024000000020100804023E5149453E00427F4014
:100250000042615149462141454B311814127F102B
:1002600027454545393C4A4949300171090503365E
:1002700049494936064949291E00363600000056CC
:1002800036000008142241001414141414004122F2
:1002900014080201510906324979413E7E111111BB
:1002A0007E7F494949363E414141227F4141221CDE
:1002B0007F494949417F090909013E4149497A7FFE
:1002C0000808087F00417F41002040413F017F082E
:1002D0001422417F404040407F020C027F7F04088F
:1002E000107F3E4141413E7F090909063E415121AF
:1002F0005E7F09192946464949493101017F0101BB
:100300003F4040403F1F2040201F3F4038403F6358
:100310001408146307087008076151494543007FBA
:1003200041410002040810200041417F0004020105
:100330000204404040404000010204002054545454
:10034000787F484444383844444420384444487F03
:100350003854545418087E0901020C5252523E7F00
:100360000804047800447D40002040443D007F1094
:1003700028440000417F40007C041804787C080475
:10038000047838444444387C1414140808141418AD
:100390007C7C080404084854545420043F44402002
:1003A0003C4040207C1C2040201C3C4030403C44D1
:1003B000281028440C5050503C4464544C440008CD
:1003C00036410000007F0000004136080010080898
:1003D000100878464146786E616E00696E660000CE
:1003E000407A10F35A00A0724E18090010A5D4E804
:1003F0000000E87648170000E40B54020000CA9A97
:100400003B000000E1F505000080969800000040E8
:10041000420F000000A0860100000010270000002D
:1004200000E803000000006400000000000A000073
:100430000000000100000000002C76D888DC674F27
:100440000823DFC1DFAE59E1B1B796E5E3E453C657
:100450003AE651997696E8E6C28426EB898C9B624F
:10046000ED407C6FFCEFBC9C9F40F2BAA56FA5F4F9
:1004700090055A2AF75C936B6CF9676DC11BFCE021
:10048000E40D47FEF520E6B500D0ED902E03009474
:100490003577050080841E080000204E0A00000009
:1004A000C80C333333330F986E12831141EF8D2113
:1004B00014893BE65516CFFEE6DB18D1844B381B7A
:1004C000F77C1D901DA4BBE424203284725E22813F
:1004D00000C9F124ECA1E53D270011241FBECFEF98
:1004E000DAE0DEBFCDBF11E0A0E0B1E0E8E2F3E288
:1004F00002C005900D92AC33B107D9F713E0ACE31D
:10050000B1E001C01D92A93FB107E1F70E944D0380
:100510000C9492110C9400001F920F920FB60F9240
:1005200011242F933F934F935F936F937F938F93F8
:100530009F93AF93BF93EF93FF9360913C017091B2
:100540003D0180913E0190913F012DEB37E346E064
:100550005CE30E940A0E60933C0170933D0180931E
:100560003E0190933F0120E030E040E85FE30E94CD
:100570008C0F882384F080E090E0A0E0B0E08093CE
:100580003C0190933D01A0933E01B0933F018BB19C
:1005900090E489278BB9FF91EF91BF91AF919F9123
:1005A0008F917F916F915F914F913F912F910F901C
:1005B0000FBE0F901F9018958FE30E94340A8AE0B7
:1005C00090E06AE070E040E051E021E00E94DD0947
:1005D0000E94000A0E9452030E946B038823E1F3E9
:1005E0000E94EE078AE090E06AE070E04FE051E0A0
:1005F00021E00E94DD090E94000A0895E1E6F0E092
:1006000080E8808391E09083569A85B5846085BDAB
:1006100090936E0078940E94DC020895DC010D90A6
:100620000020E9F71197A81BB90BBD010E94230414
:1006300008950F931F930E946E039C0197FD2AC09B
:100640008DB79EB708970FB6F8949EBF0FBE8DBFAB
:10065000EDB7FEB7319600EB11E0ADB7BEB712961D
:100660001C930E93119781E590E0938382838DE133
:1006700091E095838483378326830E9403118DB78D
:100680009EB708960FB6F8949EBF0FBE8DBFC801E7
:100690000E940E031F910F9108950E94FE020E9476
:1006A0001903FDCF81E08093D70080EA8093D800C2
:1006B00082E189BD09B400FEFDCF80E98093D800B6
:1006C0001092E00010924001109241018CE0809362
:1006D000E200789408958091400108952FB7F8942E
:1006E00080914001882369F083E08093E9009BE6D4
:1006F0008091E80085FD09C082FF03C09093E80067
:10070000F7CF2FBF2FEF3FEF0CC09091F1008091FA
:10071000E80085FD03C08BE68093E8002FBF292FFA
:1007200030E0C90108952FB7F894809140018823E3
:1007300011F490E010C083E08093E9009091F20002
:10074000992349F48091E80082FF05C085FD03C02C
:100750008BE68093E8002FBF892F08958091400198
:10076000882371F09FB7F89483E08093E9002BE62B
:1007700002C02093E8008091E80085FDFACF9FBF7A
:100780000895482F809140018823D9F12FB7F8941C
:1007900084E08093E90080914301882341F08091B7
:1007A000E80085FD02C02FBF12C010924301909156
:1007B000E400975E34E08091E80085FD13C02FBF10
:1007C0008091E400891729F481E0809343018FEF41
:1007D0000895809140018823A1F02FB7F8943093B9
:1007E000E900E9CF4093F1008091E80085FD03C066
:1007F0008AE38093E80085E0809342012FBF80E088
:1008000008958FEF0895282F80914001882351F09B
:100810009FB7F89484E08093E9008091E80085FD1B
:1008200003C09FBF8FEF08952093F1008091E800EF
:1008300085FD03C08AE38093E80085E08093420150
:100840009FBF80E00895CF93DF93EC01809140013A
:10085000882309F41CC13FB7F89484E08093E90031
:1008600080914301882309F408C18091E80085FD47
:1008700002C03FBF0CC110924301FFC09091E40041
:10088000975E8091E80085FD13C03FBF8091E40032
:10089000891721F481E080934301F9C080914001E0
:1008A000882309F4F4C03FB7F894B093E900E9CF86
:1008B0008091F200242F281B822F90E0681779077F
:1008C00008F4262F822F90E08134910508F0C6C0ED
:1008D0008A5A9F4FFC01EE0FFF1F0590F491E02D07
:1008E000099489918093F10089918093F100899115
:1008F0008093F10089918093F10089918093F100B8
:1009000089918093F10089918093F100899180937E
:10091000F10089918093F10089918093F100899190
:100920008093F10089918093F10089918093F10087
:1009300089918093F10089918093F100899180934E
:10094000F10089918093F10089918093F100899160
:100950008093F10089918093F10089918093F10057
:1009600089918093F10089918093F100899180931E
:10097000F10089918093F10089918093F100899130
:100980008093F10089918093F10089918093F10027
:1009900089918093F10089918093F10089918093EE
:1009A000F10089918093F10089918093F100899100
:1009B0008093F10089918093F10089918093F100F7
:1009C00089918093F10089918093F10089918093BE
:1009D000F10089918093F10089918093F1008991D0
:1009E0008093F10089918093F10089918093F100C7
:1009F00089918093F10089918093F100899180938E
:100A0000F10089918093F10089918093F10089919F
:100A10008093F10089918093F10089918093F10096
:100A200089918093F10089918093F100899180935D
:100A3000F10089918093F10089918093F10089916F
:100A40008093F10089918093F10089918093F10066
:100A500089918093F10089918093F100899180932D
:100A6000F1008091E80085FD02C05093E800621B10
:100A70007109A09342013FBF04C0B4E040E45AE3CF
:100A8000A5E06115710509F0F9CE80E001C08FEF96
:100A9000DF91CF9108959FB7F89480914201882308
:100AA00041F084E08093E9008AE38093E8001092AB
:100AB00042019FBF0895609134017091350180918A
:100AC0003601909137010895809138010895809101
:100AD0003901089580913A01089580914101089566
:100AE000282F9FB7F89480914001882339F082E045
:100AF0008093E9008091E80085FD03C09FBF8FEFE0
:100B0000089581EA8093F10080E28093F1001092D1
:100B1000F1001092F1001092F1001092F10081E0CA
:100B20008093F1001092F1002093F1008AE380930A
:100B3000E8009FBF80E008951F920F920FB60F92BA
:100B400011248F939F938091E1001092E100982FE0
:100B500083FF11C01092E90081E08093EB001092B6
:100B6000EC0082E18093ED0088E08093F000109229
:100B700040011092410192FF13C0809140018823EF
:100B800079F080914201882359F08150809342018D
:100B9000882331F484E08093E9008AE38093E800BD
:100BA0009F918F910F900FBE0F901F9018951F92DD
:100BB0000F920FB60F9211240F931F932F933F9311
:100BC0004F935F936F937F938F939F93AF93BF9355
:100BD000EF93FF931092E9008091E80083FF3CC1FE
:100BE0004091F1003091F1008091F100682F70E0A8
:100BF0002091F100922F80E0682B792B8091F100F9
:100C0000A82FB0E02091F100922F80E0A82BB92B03
:100C10001091F1000091F10082EF8093E8003630EE
:100C200009F05AC025E331E0A90145505040F901CF
:100C30003797859194918617970701F5FA01859169
:100C400094918A179B07D1F49A012E5F3F4FF901C7
:100C5000659174912E5F3F4FF9014491212F30E04F
:100C6000902F80E0282B392B2F3F310519F010F001
:100C70002FEF30E0241758F4422F09C0295F3F4F6F
:100C8000495F5F4FF1E02F353F0789F6E5C05EEF22
:100C90008091E800282F30E0C90185709070892B81
:100CA000B9F322FDDCC0342F413108F030E1232FAD
:100CB000CB0106C0FC010196E491E093F1002150C4
:100CC0002223C1F7630F711D431B5093E800442397
:100CD000F9F63031E9F2C3C0353061F48EEF80931C
:100CE000E8008091E80080FFFCCF862F8068809329
:100CF000E300B5C0393051F5442309F0ADC060932D
:100D0000400110924101109242018EEF8093E80061
:100D100088E591E021E02093E900FC010196E4914F
:100D2000E093EB00EE2369F0AC014F5F5F4FFC01F5
:100D300084918093EC00CA010196FA0134913093BA
:100D4000ED002F5F253039F78EE181C0383061F436
:100D5000403809F081C08091E80080FFFCCF80918D
:100D600040018093F10050C0313289F4413A09F0DA
:100D700073C08091E80080FFFCCFE4E3F1E0819153
:100D80008093F10081E0EB33F807C9F73DC03032C2
:100D9000A1F4413209F060C08091E80082FFFCCFED
:100DA000E4E3F1E08091F100819381E0EB33F80717
:100DB000C9F78BEF8093E80027C0323251F44132FB
:100DC00009F04AC0609341018091E80080FFFCCFA8
:100DD0001BC03323E9F48091E80080FFFCCF423848
:100DE00011F080E00DC0A093E9008091EB0090E04D
:100DF00025E0969587952A95E1F781701092E90094
:100E00008093F1001092F1008EEF8093E80027C0EC
:100E1000313011F0333001F54230F1F4672BE1F459
:100E20002A2F2F77822F81508430B0F48EEF809359
:100E3000E8002093E900333079F089E18093EB00FA
:100E400081E090E002C0880F991F2A95E2F7809315
:100E5000EA001092EA0003C081E28093EB00FF9168
:100E6000EF91BF91AF919F918F917F916F915F9122
:100E70004F913F912F911F910F910F900FBE0F90A7
:100E80001F9018959B01AC01F89460E079E08DE328
:100E900090E00E94900F2150310941095109569567
:100EA0004795379527953093CD002093CC0082E06D
:100EB0008093C80088E98093C90086E08093CA00C7
:100EC0001092860110928701109244011092450100
:100ED00078940895909187019F5F983208F090E090
:100EE000209186012917E1F3E92FF0E0E857FE4F42
:100EF00080839093870188EB8093C9000895909137
:100F00004501809144019817D1F3909144019F5F6E
:100F1000903408F090E0E92FF0E0EA5BFE4F80812A
:100F2000909344010895809145019091440189175F
:100F300008F4805C891B08951F920F920FB60F92E0
:100F400011248F939F93EF93FF939091870180914A
:100F50008601981304C088E98093C9000FC080916E
:100F600086018F5F883208F080E0E82FF0E0E857D4
:100F7000FE4F90819093CE0080938601FF91EF9178
:100F80009F918F910F900FBE0F901F9018951F92F9
:100F90000F920FB60F9211242F938F939F93EF937D
:100FA000FF939091CE00809145018F5F803408F0CF
:100FB00080E020914401821739F0E82FF0E0EA5BED
:100FC000FE4F908380934501FF91EF919F918F9108
:100FD0002F910F900FBE0F901F901895E1E0F2E057
:100FE000119283E0E93FF807D9F708959C0197FD36
:100FF00037C077FD35C08435910594F560337105B0
:101000007CF5CB0153E0959587955A95E1F767708C
:10101000442399F0E4E58E9FF0011124E20FF31FC1
:10102000EF5FFD4F81E090E002C0880F991F6A9545
:10103000E2F72081282B20830895E4E58E9FF001BC
:101040001124E20FF31FEF5FFD4F81E090E002C03B
:10105000880F991F6A95E2F78095208128232083C5
:1010600008952F923F924F925F926F927F928F924C
:101070009F92AF92BF92CF92DF92EF92FF920F9327
:101080001F93DF93CF93CDB7DEB72D970FB6F894AC
:10109000DEBF0FBECDBF7C016B014A0139010B875A
:1010A00084179507F1F45B010FC0C701B5014B85AB
:1010B0000E94F607C614D70424F40894A11CB11C9E
:1010C00003C00894A108B108C614D7042CF46A140C
:1010D0007B040CF4FAC0E9CFA614B7040CF4F5C0F5
:1010E000E4CF62177307F1F45C010FC0C501B601CC
:1010F0004B850E94F607E814F90424F40894A11C17
:10110000B11C03C00894A108B108E814F9042CF438
:101110008A149B040CF4D9C0E9CFA814B9040CF4C8
:10112000D4C0E4CF4817590724F447017A013B01A2
:101130006901B4016E197F09882777FD8095982F82
:101140000E94DC0E6F83788789879A87B3016C19B8
:101150007D09882777FD8095982F0E94DC0E6B8390
:101160007C838D839E832F81388549855A850E9493
:10117000720E1B012C0120E030E040E050E00E94A4
:101180008C0F87FF04C057FA509457F85094DA82B6
:10119000C9820F2EF0E0AF2EF0E0BF2EF0E0CF2E90
:1011A000F0E0DF2EF02D7DC0C70169817A814B858B
:1011B0000E94F607C601B501A20191010E940A0E24
:1011C0003AC0C70169817A814B850E94F6071D8666
:1011D0001C866B817C818D819E8120E030E040E027
:1011E00050E00E948C0F181624F421E030E03D8777
:1011F0002C8700E010E06B817C818D819E8120E056
:1012000030E040E050E00E946E0E882314F401E0CC
:1012100010E08C859D85801B910BE981FA81E80F98
:10122000F91FFA83E983C601B50120E030E040E808
:101230005FE30E94090E5B016C0120E030E040E0BA
:101240005FE30E948C0F8823CCF06B817C818D81C1
:101250009E8120E030E040E050E00E948C0F1816A4
:101260003CF429813A81621673060CF0AACF06C0BD
:1012700089819A81861597050CF0A3CF6F817885B7
:1012800089859A8520E030E040E050E00E948C0F94
:10129000181624F40894E11CF11C03C00894E1081A
:1012A000F1086F81788589859A8520E030E040E0FB
:1012B00050E00E948C0F181624F48E149F042CF01A
:1012C00073CFE814F9040CF06FCF2D960FB6F89495
:1012D000DEBF0FBECDBFCF91DF911F910F91FF9069
:1012E000EF90DF90CF90BF90AF909F908F907F90C6
:1012F0006F905F904F903F902F9008955F926F9204
:101300007F928F929F92AF92BF92CF92DF92EF9295
:10131000FF920F931F93CF93DF934B01522E25E043
:10132000429FA0011124E7E5EE2EE1E0FE2EE40E3F
:10133000F51E8C0171E0672E712C6CE5A62E61E024
:10134000B62EA40EB51EF7018491552009F48095A0
:10135000C0E0D0E0C82EDD24BE01680D791DA301D8
:101360000C2E02C0440F551F0A94E2F74C215D2158
:101370000C2E02C0559547950A94E2F7C8010E94C9
:10138000F6072196C830D10539F70894E11CF11C05
:101390000F5F1F4FEA14FB04B1F6DF91CF911F914D
:1013A0000F91FF90EF90DF90CF90BF90AF909F9004
:1013B0008F907F906F905F900895DF92EF92FF92F1
:1013C0000F931F93CF93DF937B01EA01D22E082F57
:1013D00010E008C0802F90E0B7012D2D0E947E09FB
:1013E0000B5F1F5FFE01E10FF11D4081442391F768
:1013F000DF91CF911F910F91FF90EF90DF900895B3
:10140000CF93DF9380E060E00E94750AC1E0D2E0F4
:1014100081E069910E94130A83E0C93FD807C1F7B0
:10142000DF91CF91089595B18295880F807E9F7D41
:10143000982B95B95F9827E030E070E08F98CB014A
:10144000022E02C0959587950A94E2F780FF02C0AC
:101450002E9A01C02E988F9A215030408FEF2F3F47
:10146000380761F75F9A08951F93182F579A249AA7
:10147000259A269A879A2C985F9A2C9A80E061E2A6
:101480000E94130A106880E0612F0E94130A80E016
:1014900064E00E94130A80E063E10E94130A80E086
:1014A0006CE00E94130A80E060E20E94130A80E070
:1014B0006CE00E94130A80E060E40E94130A80E05E
:1014C00060E80E94130A1F910895CF93DF93C0E054
:1014D000D0E081E060E00E94130A219681E0C83FDD
:1014E000D807B9F7DF91CF9108951F93182F606443
:1014F00080E00E94130A106880E0612F0E94130AA6
:101500001F910895A1E1B0E0E8E8FAE00C94B20F71
:101510003C017F876E876A01FC01178216828381F6
:1015200081FD03C06FEF7FEF6FC39E012F5F3F4FC1
:10153000398B288BF3012381EE85FF8523FD85916F
:1015400023FF8191FF87EE87882309F45AC38532F0
:1015500051F4EE85FF8523FD859123FF8191FF875F
:10156000EE87853229F490E0B3010E94D710E2CFD4
:10157000982F10E0882499241032B0F49B3269F03F
:101580009C3228F4903251F0933271F40BC09D32AA
:1015900039F0903349F4116028C01260146025C0FE
:1015A000186023C0106121C017FD2AC0892F805305
:1015B0008A3078F416FF06C0FAE09F9E902C112422
:1015C000980E13C03AE0839E802C1124880E10627E
:1015D0000CC09E3221F416FD14C3106406C09C3664
:1015E00011F4106802C0983659F4EE85FF8523FD8A
:1015F000959123FF9191FF87EE87992309F0BCCF46
:10160000892F8554833020F4812F8061905E07C03C
:10161000892F8556833008F09FC1812F8F7E86FDEC
:1016200002C076E0972E6FE3F62EF822953619F475
:10163000F0E4FF2A07C0963619F420E8F22A02C027
:1016400091109A94F7FE0AC03BE3391518F45CE355
:10165000B52E02C0B92CB39427E009C047E0491564
:1016600020F4BB2447E0942EF7CF292DBB24C601DC
:1016700004969D878C87F6016081718182819381B8
:10168000AE014F5F5F4F0B2D0E94E90F6C01098186
:10169000202E332400FF04C003FD02C01DE209C058
:1016A000F1FE02C01BE205C0F2FC02C010E001C066
:1016B00010E2C1018C709070892BB9F1112311F4E3
:1016C00083E001C084E0881510F088240AC0881ADD
:1016D000F3FC07C080E290E0B3010E94D7108A9427
:1016E000C9F7112329F0812F90E0B3010E94D71090
:1016F00023FE03C007ED13E00EC00BED13E00BC09B
:10170000E114F10409F0805290E0B3010E94D71077
:101710000F5F1F4F05C0EF2CFF24F0E1EF22FF24E5
:10172000F8018491882361F714C1F7FE12C0BC0C44
:1017300024FE04C08A81813309F4BA941B141CF07E
:10174000BB24B3942DC0F8E0FB1550F538E0B32E60
:1017500027C0F6FC25C0892D90E08C159D054CF026
:101760002CEFC2162FEFD20624F030E8F32A01C086
:101770009A94992049F0E2E0F0E0EC0FFD1FE90DAA
:10178000F11D80818033A1F3F7FE0AC0B92CB39418
:10179000892D90E0C816D90614F0992401C09C1830
:1017A000F7FC03C025E030E009C01C141D041CF048
:1017B00021E030E003C096012F5F3F4F112311F06D
:1017C0002F5F3F4F992029F0892D90E00196280F37
:1017D000391F882D90E02817390714F0882401C09C
:1017E000821A4F2C5524C20189709070892B39F0D0
:1017F00008C080E290E0B3010E94D7108A9488204C
:10180000C1F7112329F0812F90E0B3010E94D71076
:1018100043FE07C008C080E390E0B3010E94D710E8
:101820008A948820C1F7F7FE46C08601D7FE02C021
:1018300000E010E076010894E11CF11CE01AF10AC6
:1018400041E050E04C0F5D1FE40EF51E26014B18E1
:101850005108892D90E0AA24BB24A81AB90A5FEF89
:101860000F3F150729F48EE290E0B3010E94D710D4
:10187000C016D10634F0401651061CF4F7018081E1
:1018800001C080E3015010400894E11CF11C0A15CE
:101890001B052CF090E0B3010E94D710E0CF0C158F
:1018A0001D0539F49A81963318F4953311F424FE0A
:1018B00081E390E04BC08A81813309F00F7E90E094
:1018C000B3010E94D7109920A1F08EE290E0B301FD
:1018D0000E94D71012E0E1E0F0E0EC0FFD1FE10FF5
:1018E000F11D1F5F808190E0B3010E94D7109A9490
:1018F00091F744FC03C085E690E002C085E490E0E7
:10190000B3010E94D710D7FC05C0C114D10441F423
:1019100004FF06C0D094C194D108D3948DE201C0D5
:101920008BE290E0B3010E94D71080E305C08F5F87
:1019300026EF3FEFC20ED31E3AE0C316D104BCF728
:1019400090E0B3010E94D710C601C096B3010E9477
:10195000D710CC84DD8452C1933631F0933799F09F
:10196000933509F059C023C0F601808189835E0157
:101970000894A11CB11C22E030E0C20ED31E21E06D
:10198000E22EF12C12C0F601A080B18016FD03C03A
:101990006FEF7FEF02C0692D70E022E030E0C20EF1
:1019A000D31EC5010E94CC107C011F7713C0F60125
:1019B000A080B18016FD03C06FEF7FEF02C0692DDC
:1019C00070E022E030E0C20ED31EC5010E94C110BB
:1019D0007C01106813FF07C01BC080E290E0B301D8
:1019E0000E94D7108A94882D90E0E816F906A8F393
:1019F0000FC0F50117FD859117FF81915F0190E000
:101A0000B3010E94D71081108A940894E108F1086C
:101A1000E114F10471F7F2C0943611F0993689F5AA
:101A200017FF08C0F601208131814281538184E093
:101A300090E00AC0F601808191819C01442737FD26
:101A40004095542F82E090E0C80ED91E9FE6F92EF3
:101A5000F12257FF09C050954095309521953F4F91
:101A60004F4F5F4F90E8F92ACA01B901AE014F5FAD
:101A70005F4F2AE030E00E943411E82EE889EE1A28
:101A800041C0953721F41F7E2AE030E01CC0197F49
:101A90009F3661F0903720F4983509F0B2C00FC03E
:101AA000903739F0983709F0ACC004C028E030E036
:101AB0000AC0106114FD146020E130E004C014FD80
:101AC000166020E132E017FF08C0F60160817181E5
:101AD0008281938144E050E008C0F60180819181C9
:101AE000BC0180E090E042E050E0C40ED51EAE01A3
:101AF0004F5F5F4F0E943411E82E5889E51A8FE737
:101B0000F82EF122F6FE0BC08EEFF822E91438F41D
:101B1000F4FE07C0F2FC05C09FEEF92202C01E2DA4
:101B200001C0192DF4FE0DC0FE01EE0DF11D8081E6
:101B3000803319F4E9EEFE2208C01F5FF2FE05C0F3
:101B400003C08F2D867809F01F5F0F2DF3FC14C0A2
:101B5000F0FE0FC0181510F09E2C0BC09E2C980C98
:101B6000911A182D06C080E290E0B3010E94D710B0
:101B70001F5F1815C0F304C0181510F4811A01C0B6
:101B8000882404FF0FC080E390E0B3010E94D710C7
:101B900002FF1DC001FD03C088E790E00EC088E58C
:101BA00090E00BC0802F867891F001FF02C08BE29D
:101BB00001C080E2F7FC8DE290E0B3010E94D710F3
:101BC00006C080E390E0B3010E94D7109A94E91414
:101BD000C0F3EA94E1E0F0E0EC0FFD1FEE0DF11D23
:101BE000808190E0B3010E94D710EE2091F706C0EB
:101BF00080E290E0B3010E94D7108A948820C1F758
:101C000099CCF30166817781CB016196E2E10C9476
:101C1000CE0F5058BB27AA270ED044C135D130F083
:101C20003AD120F031F49F3F11F41EF42AC10EF492
:101C3000E095E7FB20C1E92F46D180F3BA17620790
:101C400073078407950718F071F49EF55EC10EF4D2
:101C5000E0950B2EBA2FA02D0B01B90190010C01BC
:101C6000CA01A0011124FF27591B99F0593F50F4D4
:101C7000503E68F11A16F040A22F232F342F44272C
:101C8000585FF3CF469537952795A795F040539524
:101C9000C9F77EF41F16BA0B620B730B840BBAF0F4
:101CA0009150A1F0FF0FBB1F661F771F881FC2F75F
:101CB0000EC0BA0F621F731F841F48F48795779573
:101CC0006795B795F7959E3F08F0B3CF9395880F2A
:101CD00008F09927EE0F979587950895A8D008F4F6
:101CE00081E008950CD0DEC0D6D040F0CDD030F0E9
:101CF00021F45F3F19F0BFC0511108C1C2C0E3D049
:101D000098F39923C9F35523B1F3951B550BBB27C2
:101D1000AA2762177307840738F09F5F5F4F220F6F
:101D2000331F441FAA1FA9F333D00E2E3AF0E0E868
:101D300030D091505040E695001CCAF729D0FE2FB4
:101D400027D0660F771F881FBB1F26173707480746
:101D5000AB07B0E809F0BB0B802DBF01FF279358FC
:101D60005F4F2AF09E3F510568F085C0CFC05F3FAE
:101D7000ECF3983EDCF3869577956795B795F795E4
:101D80009F5FC9F7880F911D9695879597F90895DC
:101D9000E1E0660F771F881FBB1F62177307840778
:101DA000BA0720F0621B730B840BBA0BEE1F88F787
:101DB000E0950895E89409C097FB3EF490958095CE
:101DC000709561957F4F8F4F9F4F9923A9F0F92F01
:101DD00096E9BB279395F695879577956795B7957F
:101DE000F111F8CFFAF4BB0F11F460FF1BC06F5F65
:101DF0007F4F8F4F9F4F16C0882311F096E911C077
:101E0000772321F09EE8872F762F05C0662371F097
:101E100096E8862F70E060E02AF09A95660F771FAB
:101E2000881FDAF7880F9695879597F90895990F87
:101E30000008550FAA0BE0E8FEEF16161706E80794
:101E4000F907C0F012161306E407F50798F0621BB5
:101E5000730B840B950B39F40A2661F0232B242B8A
:101E6000252B21F408950A2609F4A140A6958FEFA9
:101E7000811D811D089597F99F6780E870E060E0FB
:101E800008959FEF80EC089500240A941616170613
:101E900018060906089500240A941216130614065B
:101EA00005060895092E0394000C11F4882352F0BE
:101EB000BB0F40F4BF2B11F460FF04C06F5F7F4F76
:101EC0008F4F9F4F089557FD9058440F551F59F05D
:101ED0005F3F71F04795880F97FB991F61F09F3F17
:101EE00079F087950895121613061406551FF2CF40
:101EF0004695F1DF08C0161617061806991FF1CF90
:101F000086957105610508940895E894BB276627B6
:101F10007727CB0197F908958ADF08F48FEF0895AA
:101F2000A1E21A2EAA1BBB1BFD010DC0AA1FBB1FDD
:101F3000EE1FFF1FA217B307E407F50720F0A21B4F
:101F4000B30BE40BF50B661F771F881F991F1A94BC
:101F500069F760957095809590959B01AC01BD01E6
:101F6000CF0108952F923F924F925F926F927F928E
:101F70008F929F92AF92BF92CF92DF92EF92FF9299
:101F80000F931F93CF93DF93CDB7DEB7CA1BDB0B45
:101F90000FB6F894DEBF0FBECDBF09942A883988EA
:101FA00048885F846E847D848C849B84AA84B984F1
:101FB000C884DF80EE80FD800C811B81AA81B981FD
:101FC000CE0FD11D0FB6F894DEBF0FBECDBFED0111
:101FD0000895283008F027E03327DA01990F311DE2
:101FE00087FD916000966105710539F432602E5FBE
:101FF0003D9330E32A95E1F708959F3F30F0803814
:102000007105610509F03C5F3C5F3D93913008F03C
:102010008068911DDF93CF931F930F93FF92EF92F0
:10202000192F987F9695E92F96959695E90FFF279A
:10203000E75CFB4F99273327EE24FF24A701E70134
:1020400005900894079428F4360FE71EF81E491FE0
:10205000511D660F771F881F991F0694A1F70590E1
:10206000079428F4E70EF81E491F561FC11D770F6D
:10207000881F991F661F0694A1F70590079428F4FE
:10208000F80E491F561FC71FD11D880F991F661FC5
:10209000771F0694A1F70590079420F4490F561F67
:1020A000C71FD81F990F661F771F881F0694A9F7AF
:1020B00084911095177041F0D695C795579547951F
:1020C000F794E7941A95C1F7EFEDF3E06894159053
:1020D000159135916591959105907FE27395E11881
:1020E000F10A430B560BC90BD009C0F7E10CF11EE6
:1020F000431F561FC91FD01D7EF4703311F48A95FB
:10210000E6CFE894015030F0080F0AF400270217D8
:1021100008F4202F2395022F7A3328F079E37D935A
:102120002A95E9F710C07D932A9589F6069497952C
:102130006795379517951794E118F10A430B560BDD
:10214000C90BD00998F023957E9173957A3308F0E6
:1021500070E37C932013B8F77E9170617D9330F02B
:10216000839571E37D9370E32A95E1F71124EF9055
:10217000FF900F911F91CF91DF91992787FD909547
:102180000895FC010590615070400110D8F78095CA
:1021900090958E0F9F1F0895FC0161507040019033
:1021A0000110D8F7809590958E0F9F1F08950F937B
:1021B0001F93CF93DF938C01EB018B8181FF1BC0B9
:1021C00082FF0DC02E813F818C819D8128173907A8
:1021D00064F4E881F9810193F983E88306C0E88516
:1021E000F985802F0995892B31F48E819F81019685
:1021F0009F838E8302C00FEF1FEFC801DF91CF9145
:102200001F910F910895AEE0B0E0E9E0F1E10C9488
:10221000C00F0D891E898F89988D97FF02C080E0BD
:1022200090E801979E838D831A83098386E08C83CF
:102230009E01255E3F4FCE010196698D7A8DA901E1
:102240000E94820A4D815E8157FD0AC02F81388528
:10225000421753070CF49A01020F131FF801108262
:102260002E96E4E00C94DC0FFA01AA27283051F1F5
:10227000203181F1E8946F936E7F6E5F7F4F8F4FB7
:102280009F4FAF4FB1E03ED0B4E03CD0670F781F16
:10229000891F9A1FA11D680F791F8A1F911DA11DFB
:1022A0006A0F711D811D911DA11D20D009F4689434
:1022B0003F912AE0269F11243019305D3193DEF6DC
:1022C000CF010895462F4770405D4193B3E00FD092
:1022D000C9F7F6CF462F4F70405D4A3318F0495D7D
:1022E00031FD4052419302D0A9F7EACFB4E0A69560
:1022F0009795879577956795BA95C9F70097610582
:10230000710508959B01AC010A2E069457954795D7
:1023100037952795BA95C9F7620F731F841F951FCC
:08232000A01D0895F894FFCF01
:10232800436F6E6E656374205553422E2E2E0055F2
:10233800534220636F6E6E656374656400746565EF
:102348006E737920726563656976656420272563F5
:0C235800270D0A0000E100000000080052
:00000001FF
